SPE1C125T27328470016987150                                    701371377809/22/25SPE1C125T2732.pdf  0000001EAHELMET,BODY ARMOR    DJB04D1N000
SPE1C125T27328470016987150                                    701371377909/22/25SPE1C125T2732.pdf  0000001EAHELMET,BODY ARMOR    DJB04D1N000
SPE1C125T27328470016987150                                    701371400709/22/25SPE1C125T2732.pdf  0000001EAHELMET,BODY ARMOR    DJB04D1N000
SPE1C125T27328470016987150                                    701371413409/22/25SPE1C125T2732.pdf  0000001EAHELMET,BODY ARMOR    DJB04D1N000
SPE1C125T27328470016987150                                    701371413609/22/25SPE1C125T2732.pdf  0000001EAHELMET,BODY ARMOR    DJB04D1N000
SPE1C125T27328470016987150                                    701371413809/22/25SPE1C125T2732.pdf  0000001EAHELMET,BODY ARMOR    DJB04D1N000
SPE1C125T27328470016987150                                    701371416009/22/25SPE1C125T2732.pdf  0000001EAHELMET,BODY ARMOR    DJB04D1N000
SPE1C125T27328470016987150                                    701371416109/22/25SPE1C125T2732.pdf  0000001EAHELMET,BODY ARMOR    DJB04D1N000
SPE1C125T27328470016987150                                    701371416309/22/25SPE1C125T2732.pdf  0000001EAHELMET,BODY ARMOR    DJB04D1N000
SPE1C125T27328470016987150                                    701371416509/22/25SPE1C125T2732.pdf  0000001EAHELMET,BODY ARMOR    DJB04D1N000
SPE1C125T27328470016987150                                    701371416609/22/25SPE1C125T2732.pdf  0000001EAHELMET,BODY ARMOR    DJB04D1N000
SPE1C125T27328470016987150                                    701371416709/22/25SPE1C125T2732.pdf  0000001EAHELMET,BODY ARMOR    DJB04D1N000
SPE1C125T27328470016987150                                    701371417009/22/25SPE1C125T2732.pdf  0000001EAHELMET,BODY ARMOR    DJB04D1N000
SPE1C125T27328470016987150                                    701371417409/22/25SPE1C125T2732.pdf  0000001EAHELMET,BODY ARMOR    DJB04D1N000
SPE1C125T27328470016987150                                    701371417509/22/25SPE1C125T2732.pdf  0000001EAHELMET,BODY ARMOR    DJB04D1N000
SPE1C125T27328470016987150                                    701371432209/22/25SPE1C125T2732.pdf  0000001EAHELMET,BODY ARMOR    DJB04D1N000
SPE1C125T28158455014758861                                    701385374909/29/25SPE1C125T2815.pdf  0000020EAINSIGNIA,SHOULDER S  PCPQCG1N000
SPE1C125T28168465016642212                                    701385845609/29/25SPE1C125T2816.pdf  0000012EAFIBER ROPE ASSEMBLY  DMR01Z1N000
SPE1C125T28178465015734439                                    701386395909/29/25SPE1C125T2817.pdf  0000001EAPOUCH,MEDICAL,UTILI  DMR01Z1N000
SPE1C125T28178465015734439                                    701387429109/29/25SPE1C125T2817.pdf  0000005EAPOUCH,MEDICAL,UTILI  DMR01Z1N000
SPE1C125T28178465015734439                                    701387468309/29/25SPE1C125T2817.pdf  0000005EAPOUCH,MEDICAL,UTILI  DMR01Z1N000
SPE1C125T28198465016964281                                    701386814909/29/25SPE1C125T2819.pdf  0000010EAFIELD PACK           DMR01Z1N000
SPE1C125T28208345015645816                                    701386869509/29/25SPE1C125T2820.pdf  0000001EASTREAMER,AWARD       DCS00G1N000
SPE2DH25T64446630016222805                                    701374745509/23/25SPE2DH25T6444.pdf  0000004KTTEST KIT,FUEL MICRO  PAA23Z1N000
SPE2DH25T66186530000797039                                    701385424209/25/25SPE2DH25T6618.pdf  0000001PGINDICATOR,STERILIZA  PDPSHZ1N000
SPE2DH25T66196530015480940                                    701385447109/25/25SPE2DH25T6619.pdf  0000002EABAG,FIRST RESPONDER  PDPSHZ1N000
SPE2DH25T66206520015909209                                    701385322009/25/25SPE2DH25T6620.pdf  0000010EAPIN,LEG ADJUSTMENT   PDPSHZ1N000
SPE2DH25T66216520015909133                                    701385321809/25/25SPE2DH25T6621.pdf  0000003EAARM SUPPORT,DENTAL   PDPSHZ1N000
SPE2DH25T66226520015909157                                    701385321909/25/25SPE2DH25T6622.pdf  0000020EAARMREST SUPPORT ROD  PDPSHZ1N000
SPE2DH25T66236532016528496                                    701385424109/25/25SPE2DH25T6623.pdf  0000001PGBLANKET,WARMING,HYP  PDPSHZ1N000
SPE2DH25T66236532016528496                                    701386791309/25/25SPE2DH25T6623.pdf  0000003PGBLANKET,WARMING,HYP  PDPSHZ1N000
SPE2DH25T66246530017022905                                    701385424309/25/25SPE2DH25T6624.pdf  0000001EATRAY,CATHETER,CENTR  PDPSHZ1N000
SPE2DH25T66246530017022905                                    701387125509/25/25SPE2DH25T6624.pdf  0000003EATRAY,CATHETER,CENTR  PDPSHZ1N000
SPE2DH25T66256910015905529                                    701388405409/25/25SPE2DH25T6625.pdf  0000001EABONE,INTRAOSSEOUS I  PDPSHZ1N000
SPE2DH25T66266530016111153                                    701386523109/25/25SPE2DH25T6626.pdf  0000003EACART,MEDICAL EQUIPM  PDPSHZ1N000
SPE2DH25T66276520015908437                                    701386794109/25/25SPE2DH25T6627.pdf  0000001PGBITE STICK,DENTAL    PDPSHZ1N000
SPE2DH25T66286530016007741                                    701389414609/25/25SPE2DH25T6628.pdf  0000019EALITTER,NONRIGID,POL  PDPSHZ1N000
SPE2DH25T66296520015182825                                    701386786109/25/25SPE2DH25T6629.pdf  0000001EATOOTH SAVER FLUID    PDPSHZ1N000
SPE2DH25T66306130016657224                                    701386752209/25/25SPE2DH25T6630.pdf  0000002EABATTERY POWER SUPPLY PDPSHZ1N000
SPE2DH25T66316640017225866                                    701386794509/25/25SPE2DH25T6631.pdf  0000003BXSCOOP,LABORATORY     PDPSHZ1N000
SPE2DH25T66316640017225866                                    701389213809/25/25SPE2DH25T6631.pdf  0000003BXSCOOP,LABORATORY     PDPSHZ1N000
SPE2DH25T66326525016731558                                    701386786709/25/25SPE2DH25T6632.pdf  0000004EATEST STAND,CONFORMA  PDPSHZ1N000
SPE2DH25T66346910016565343                                    701386878409/25/25SPE2DH25T6634.pdf  0000002EATRAINING AID,PROSTH  PDPSHZ1N000
SPE2DH25T66356910016933677                                    701386873109/25/25SPE2DH25T6635.pdf  0000002KTMOULAGE SET,WAR WOU  PDPSHZ1N000
SPE2DH25T66366680016004335                                    701385597409/25/25SPE2DH25T6636.pdf  0000004EASAMPLING AND GAGING  PDPSHZ1N000
SPE2DH25T66376530017018754                                    701386932909/25/25SPE2DH25T6637.pdf  0000002SEPAD,PATIENT PROTECT  PDPSHZ1N000
SPE2DH25T66386530010324089                                    701387092809/25/25SPE2DH25T6638.pdf  0000003PGDRAPE,SURGICAL       PDPSHZ1N000
SPE2DH25T66396530007086975                                    701387092609/25/25SPE2DH25T6639.pdf  0000003EASTOOL,STRAIGHT       PDPSHZ1N000
SPE2DH25T66406530014553445                                    701387166909/25/25SPE2DH25T6640.pdf  0000002EARESTRAINT STRAP,GEN  PDPSHZ1N000
SPE2DH25T66416520017175038                                    701387198509/25/25SPE2DH25T6641.pdf  0000001PGBUR,DENTAL SURGERY   PDPSHZ1N000
SPE2DH25T66426530014598422                                    701387125609/25/25SPE2DH25T6642.pdf  0000002EARESPIRATOR,TURBO UN  PDPSHZ1N000
SPE2DH25T66436520017165200                                    701387198409/25/25SPE2DH25T6643.pdf  0000032EAHOLDER,RUBBER DAM,D  PDPSHZ1N000
SPE2DH25T66446530014994739                                    701387127609/25/25SPE2DH25T6644.pdf  0000001EACART,UTILITY,FOLDIN  PDPSHZ1N000
SPE2DH25T66456530017087698                                    701387061909/25/25SPE2DH25T6645.pdf  0000005EABOARD,CARDIAC RESUS  PDPSHZ1N000
SPE2DH25T66466520015303091                                    701387359609/25/25SPE2DH25T6646.pdf  0000012EATAILPIECE,QD SHORT   PDPSHZ1N000
SPE2DH25T66476530016195671                                    701387382609/25/25SPE2DH25T6647.pdf  0000005PGDISPOSAL CONTAINER,  PDPSHZ1N000
SPE2DH25T66486530015195786                                    701387208909/25/25SPE2DH25T6648.pdf  0000002PGBRUSH-SPONGE,SURGIC  PDPSHZ1N000
SPE2DH25T66486530015195786                                    701387384609/25/25SPE2DH25T6648.pdf  0000002PGBRUSH-SPONGE,SURGIC  PDPSHZ1N000
SPE2DH25T66486530015195786                                    701387517509/25/25SPE2DH25T6648.pdf  0000002PGBRUSH-SPONGE,SURGIC  PDPSHZ1N000
SPE2DH25T66486530015195786                                    701387518409/25/25SPE2DH25T6648.pdf  0000002PGBRUSH-SPONGE,SURGIC  PDPSHZ1N000
SPE2DH25T66486530015195786                                    701387520709/25/25SPE2DH25T6648.pdf  0000001PGBRUSH-SPONGE,SURGIC  PDPSHZ1N000
SPE2DH25T66486530015195786                                    701387521309/25/25SPE2DH25T6648.pdf  0000002PGBRUSH-SPONGE,SURGIC  PDPSHZ1N000
SPE2DH25T66486530015195786                                    701387523109/25/25SPE2DH25T6648.pdf  0000002PGBRUSH-SPONGE,SURGIC  PDPSHZ1N000
SPE2DH25T66486530015195786                                    701387523509/25/25SPE2DH25T6648.pdf  0000002PGBRUSH-SPONGE,SURGIC  PDPSHZ1N000
SPE2DP25T54496505001490141                                    701385409709/24/25SPE2DP25T5449.pdf  0000001BTPENICILLIN V POTASS  DAH01Z1N000
SPE2DP25T54506505010672812                                    701385406709/24/25SPE2DP25T5450.pdf  0000009BTPOVIDONE-IODINE TOP  PDPSHZ1N000
SPE2DP25T54516505012447982                                    701385377809/24/25SPE2DP25T5451.pdf  0000004VILABETALOL HYDROCHLO  DJM04Z1N000
SPE2DP25T54526505011464268                                    701385404009/24/25SPE2DP25T5452.pdf  0000010BTALUMINUM CHLORIDE T  PHPHBZ1N000
SPE2DP25T54536505013953039                                    701385406909/24/25SPE2DP25T5453.pdf  0000016PGFLUCONAZOLE TABLETS  DAH01Z1N000
SPE2DP25T54546505013198247                                    701385378409/24/25SPE2DP25T5454.pdf  0000001BTFLUCONAZOLE TABLETS  DMK00Z1N000
SPE2DP25T54556505013375763                                    701385379809/24/25SPE2DP25T5455.pdf  0000009BTKETOCONAZOLE SHAMPO  PHPHBZ1N000
SPE2DP25T54566505017275845                                    701385321509/24/25SPE2DP25T5456.pdf  0000005BTSUMATRIPTAN SUCCINA  DMK00Z1N000
SPE2DP25T54576505016543219                                    701385321309/24/25SPE2DP25T5457.pdf  0000001PGCALCIUM CHLORIDE IN  PDPSAZ1N000
SPE2DP25T54586505016414148                                    701385406609/24/25SPE2DP25T5458.pdf  0000012BTTETRACAINE HYDROCHL  DMK00Z1N000
SPE2DP25T54586505016414148                                    701386862209/24/25SPE2DP25T5458.pdf  0000005BTTETRACAINE HYDROCHL  DMK00Z1N000
SPE2DP25T54596505000836544                                    701385408009/24/25SPE2DP25T5459.pdf  0000001BXSODIUM CHLORIDE INJ  DMK00Z1N000
SPE2DP25T54596505000836544                                    701386967509/24/25SPE2DP25T5459.pdf  0000004BXSODIUM CHLORIDE INJ  DMK00Z1N000
SPE2DP25T54606505017081449                                    701385379609/24/25SPE2DP25T5460.pdf  0000002PGBENZOCAINE AND MENT  DNC00Z1N000
SPE2DP25T54606505017081449                                    701385408809/24/25SPE2DP25T5460.pdf  0000007PGBENZOCAINE AND MENT  DNC00Z1N000
SPE2DP25T54606505017081449                                    701386862409/24/25SPE2DP25T5460.pdf  0000004PGBENZOCAINE AND MENT  DNC00Z1N000
SPE2DP25T54606505017081449                                    701387044109/24/25SPE2DP25T5460.pdf  0000020PGBENZOCAINE AND MENT  DNC00Z1N000
SPE2DP25T54606505017081449                                    701387501109/24/25SPE2DP25T5460.pdf  0000019PGBENZOCAINE AND MENT  DNC00Z1N000
SPE2DP25T54606505017081449                                    701387501209/24/25SPE2DP25T5460.pdf  0000010PGBENZOCAINE AND MENT  DNC00Z1N000
SPE2DP25T54606505017081449                                    701387516509/24/25SPE2DP25T5460.pdf  0000012PGBENZOCAINE AND MENT  DNC00Z1N000
SPE2DP25T54616505008090241                                    701385377209/24/25SPE2DP25T5461.pdf  0000001BTDOCUSATE SODIUM CAP  DAH01Z1N000
SPE2DP25T54616505008090241                                    701385378909/24/25SPE2DP25T5461.pdf  0000003BTDOCUSATE SODIUM CAP  DAH01Z1N000
SPE2DP25T54616505008090241                                    701385380509/24/25SPE2DP25T5461.pdf  0000003BTDOCUSATE SODIUM CAP  DAH01Z1N000
SPE2DP25T54616505008090241                                    701386862609/24/25SPE2DP25T5461.pdf  0000004BTDOCUSATE SODIUM CAP  DAH01Z1N000
SPE2DP25T54626505010628010                                    701385376109/24/25SPE2DP25T5462.pdf  0000003BTCYCLOBENZAPRINE HYD  PDPSHZ1N000
SPE2DP25T54626505010628010                                    701385377409/24/25SPE2DP25T5462.pdf  0000007BTCYCLOBENZAPRINE HYD  PDPSHZ1N000
SPE2DP25T54626505010628010                                    701385404409/24/25SPE2DP25T5462.pdf  0000010BTCYCLOBENZAPRINE HYD  PDPSHZ1N000
SPE2DP25T54626505010628010                                    701385408309/24/25SPE2DP25T5462.pdf  0000002BTCYCLOBENZAPRINE HYD  PDPSHZ1N000
SPE2DP25T54636505015436562                                    701283589909/24/25SPE2DP25T5463.pdf  0000005EAALBUTEROL SULFATE I  PHPHAZ1N000
SPE2DP25T54636505015436562                                    701283595109/24/25SPE2DP25T5463.pdf  0000004EAALBUTEROL SULFATE I  PHPHAZ1N000
SPE2DP25T54636505015436562                                    701283595209/24/25SPE2DP25T5463.pdf  0000002EAALBUTEROL SULFATE I  PHPHAZ1N000
SPE2DP25T54636505015436562                                    701385380309/24/25SPE2DP25T5463.pdf  0000005EAALBUTEROL SULFATE I  PHPHAZ1N000
SPE2DP25T54636505015436562                                    701385403109/24/25SPE2DP25T5463.pdf  0000002EAALBUTEROL SULFATE I  PHPHAZ1N000
SPE2DP25T54636505015436562                                    701385403209/24/25SPE2DP25T5463.pdf  0000004EAALBUTEROL SULFATE I  PHPHAZ1N000
SPE2DP25T54636505015436562                                    701385408609/24/25SPE2DP25T5463.pdf  0000002EAALBUTEROL SULFATE I  PHPHAZ1N000
SPE2DP25T54636505015436562                                    701385409009/24/25SPE2DP25T5463.pdf  0000012EAALBUTEROL SULFATE I  PHPHAZ1N000
SPE2DP25T54636505015436562                                    701386629909/24/25SPE2DP25T5463.pdf  0000020EAALBUTEROL SULFATE I  PHPHAZ1N000
SPE2DP25T54646505015544282                                    701385377609/24/25SPE2DP25T5464.pdf  0000001PGCEFTRIAXONE INJECTI  DJM04Z1N000
SPE2DP25T54646505015544282                                    701385406509/24/25SPE2DP25T5464.pdf  0000002PGCEFTRIAXONE INJECTI  DJM04Z1N000
SPE2DP25T54646505015544282                                    701387522209/24/25SPE2DP25T5464.pdf  0000010PGCEFTRIAXONE INJECTI  DJM04Z1N000
SPE2DP25T54656505011749931                                    701385379509/24/25SPE2DP25T5465.pdf  0000008TUHYDROCORTISONE OINT  DLG00Z1N000
SPE2DP25T54656505011749931                                    701385381609/24/25SPE2DP25T5465.pdf  0000002TUHYDROCORTISONE OINT  DLG00Z1N000
SPE2DP25T54656505011749931                                    701385403309/24/25SPE2DP25T5465.pdf  0000005TUHYDROCORTISONE OINT  DLG00Z1N000
SPE2DP25T54656505011749931                                    701387353609/24/25SPE2DP25T5465.pdf  0000004TUHYDROCORTISONE OINT  DLG00Z1N000
SPE2DP25T54656505011749931                                    701387460909/24/25SPE2DP25T5465.pdf  0000004TUHYDROCORTISONE OINT  DLG00Z1N000
SPE2DP25T54666505016579247                                    701385406809/24/25SPE2DP25T5466.pdf  0000001PGSUNSCREEN PREPARATI  DMK00Z1Y100
SPE2DP25T54666505016579247                                    701385407209/24/25SPE2DP25T5466.pdf  0000001PGSUNSCREEN PREPARATI  DMK00Z1Y100
SPE2DP25T54666505016579247                                    701385408709/24/25SPE2DP25T5466.pdf  0000001PGSUNSCREEN PREPARATI  DMK00Z1Y100
SPE2DP25T54666505016579247                                    701386776709/24/25SPE2DP25T5466.pdf  0000013PGSUNSCREEN PREPARATI  DMK00Z1Y100
SPE2DP25T54666505016579247                                    701386776809/24/25SPE2DP25T5466.pdf  0000016PGSUNSCREEN PREPARATI  DMK00Z1Y100
SPE2DP25T54666505016579247                                    701386776909/24/25SPE2DP25T5466.pdf  0000020PGSUNSCREEN PREPARATI  DMK00Z1Y100
SPE2DP25T54666505016579247                                    701386781009/24/25SPE2DP25T5466.pdf  0000003PGSUNSCREEN PREPARATI  DMK00Z1Y100
SPE2DP25T54676505015544306                                    701385407609/24/25SPE2DP25T5467.pdf  0000006BTHYDROCHLOROTHIAZIDE  PHPHCZ1N000
SPE2DP25T54676505015544306                                    701386724009/24/25SPE2DP25T5467.pdf  0000002BTHYDROCHLOROTHIAZIDE  PHPHCZ1N000
SPE2DP25T54676505015544306                                    701386862109/24/25SPE2DP25T5467.pdf  0000011BTHYDROCHLOROTHIAZIDE  PHPHCZ1N000
SPE2DP25T54686505001387347                                    701385403509/24/25SPE2DP25T5468.pdf  0000025VIBUPIVACAINE HYDROCH  DMK00Z1N000
SPE2DP25T54696505000430985                                    701385376909/24/25SPE2DP25T5469.pdf  0000001BTFOLIC ACID TABLETS,  DMT00Z1N000
SPE2DP25T54706505014623022                                    701386776409/24/25SPE2DP25T5470.pdf  0000001PGRINGER'S INJECTION,  DAD01Z1N000
SPE2DP25T54716505016493422                                    701386729309/24/25SPE2DP25T5471.pdf  0000003BTALBENDAZOLE TABLETS  DAD01Z1N000
SPE2DP25T54726505017278704                                    701386788109/24/25SPE2DP25T5472.pdf  0000006BTSUMATRIPTAN SUCCINA  PHPHCZ1N000
SPE2DP25T54736505015303334                                    701386728609/24/25SPE2DP25T5473.pdf  0000003BTHYDROXYZINE HYDROCH  DLG00Z1N000
SPE2DP25T54736505015303334                                    701389127209/24/25SPE2DP25T5473.pdf  0000001BTHYDROXYZINE HYDROCH  DLG00Z1N000
SPE2DP25T54746505015333369                                    701386725809/24/25SPE2DP25T5474.pdf  0000010PGALUMINUM SULFATE AN  PHPHBZ1N000
SPE2DP25T54746505015333369                                    701389129109/24/25SPE2DP25T5474.pdf  0000001PGALUMINUM SULFATE AN  PHPHBZ1N000
SPE2DP25T54756505015034772                                    701386727709/24/25SPE2DP25T5475.pdf  0000005BTMOXIFLOXACIN HYDROC  DPP00Z1N000
SPE2DP25T54766505017078644                                    701386727109/24/25SPE2DP25T5476.pdf  0000003PGACETYLCYSTEINE INJE  DMK00Z1N000
SPE2DP25T54776505016998878                                    701386682709/24/25SPE2DP25T5477.pdf  0000002PGNALOXONE HYDROCHLOR  PDPSHZ1N000
SPE2DP25T54786505017193181                                    701386670609/24/25SPE2DP25T5478.pdf  0000001PGPSYLLIUM HYDROPHILI  DJM04Z1N000
SPE2DP25T54796505017227590                                    701386728409/24/25SPE2DP25T5479.pdf  0000002BXNIRMATRELVIR AND RI  DMT00Z1N000
SPE2DP25T54806505011277947                                    701386794809/24/25SPE2DP25T5480.pdf  0000003PGBUPIVACAINE AND EPI  DMK00Z1N000
SPE2DP25T54806505011277947                                    701387519609/24/25SPE2DP25T5480.pdf  0000002PGBUPIVACAINE AND EPI  DMK00Z1N000
SPE2DP25T54816505016572003                                    701386864609/24/25SPE2DP25T5481.pdf  0000002PGLIDOCAINE,PATCH      PHPHCZ1N000
SPE2DP25T54826505014805678                                    701386864309/24/25SPE2DP25T5482.pdf  0000033TUMUPIROCIN OINTMENT   DJM04Z1N000
SPE2DP25T54836505014625492                                    701386980409/24/25SPE2DP25T5483.pdf  0000001PGMULTIPLE ELECTROLYT  DIB00Z1N000
SPE2DP25T54846505014554552                                    701387044309/24/25SPE2DP25T5484.pdf  0000005BTAZITHROMYCIN FOR OR  DNC00Z1N000
SPE2DP25T54856505014622432                                    701386967709/24/25SPE2DP25T5485.pdf  0000002PGSODIUM CHLORIDE INJ  DLG00Z1N000
SPE2DP25T54866505016317122                                    701387044209/24/25SPE2DP25T5486.pdf  0000001PGNICARDIPINE HYDROCH  DAD01Z1N000
SPE2DP25T54876505015544428                                    701386967909/24/25SPE2DP25T5487.pdf  0000005BTVALACYCLOVIR HYDROC  DLG00Z1N000
SPE2DP25T54876505015544428                                    701387044009/24/25SPE2DP25T5487.pdf  0000004BTVALACYCLOVIR HYDROC  DLG00Z1N000
SPE2DP25T54876505015544428                                    701387073509/24/25SPE2DP25T5487.pdf  0000003BTVALACYCLOVIR HYDROC  DLG00Z1N000
SPE2DP25T54876505015544428                                    701387575909/24/25SPE2DP25T5487.pdf  0000004BTVALACYCLOVIR HYDROC  DLG00Z1N000
SPE2DP25T54886505011717559                                    701387073209/24/25SPE2DP25T5488.pdf  0000002BTAPPLICATOR,SILVER N  PHPHAZ1N000
SPE2DP25T54896505006601601                                    701387073409/24/25SPE2DP25T5489.pdf  0000001BTMETHOCARBAMOL TABLE  PHPHCZ1N000
SPE2DP25T54896505006601601                                    701387345509/24/25SPE2DP25T5489.pdf  0000005BTMETHOCARBAMOL TABLE  PHPHCZ1N000
SPE2DP25T54896505006601601                                    701387345909/24/25SPE2DP25T5489.pdf  0000002BTMETHOCARBAMOL TABLE  PHPHCZ1N000
SPE2DP25T54896505006601601                                    701387348209/24/25SPE2DP25T5489.pdf  0000001BTMETHOCARBAMOL TABLE  PHPHCZ1N000
SPE2DP25T54906505013146681                                    701387162309/24/25SPE2DP25T5490.pdf  0000002PGDOPAMINE HYDROCHLOR  DJM04Z1N000
SPE2DP25T54916505012538150                                    701387348409/24/25SPE2DP25T5491.pdf  0000001PGSODIUM CHLORIDE IRR  DNC00Z1N000
SPE2DP25T54926505012910333                                    701387345209/24/25SPE2DP25T5492.pdf  0000002PGSODIUM CHLORIDE INJ  DLG00Z1N000
SPE2DP25T54936505001538480                                    701387338309/24/25SPE2DP25T5493.pdf  0000004BTHYDROGEN PEROXIDE T  DJM04Z1N000
SPE2DP25T54936505001538480                                    701389747109/24/25SPE2DP25T5493.pdf  0000001BTHYDROGEN PEROXIDE T  DJM04Z1N000
SPE2DP25T54946505310190519                                    701387382909/24/25SPE2DP25T5494.pdf  0000200EAMIDAZOLAM INJECTION  PDPSAZ1Y100
SPE2DP25T54946505310190519                                    701387384209/24/25SPE2DP25T5494.pdf  0000200EAMIDAZOLAM INJECTION  PDPSAZ1Y100
SPE2DP25T54946505310190519                                    701387384809/24/25SPE2DP25T5494.pdf  0000200EAMIDAZOLAM INJECTION  PDPSAZ1Y100
SPE2DP25T54946505310190519                                    701387386409/24/25SPE2DP25T5494.pdf  0000200EAMIDAZOLAM INJECTION  PDPSAZ1Y100
SPE2DP25T54946505310190519                                    701387386509/24/25SPE2DP25T5494.pdf  0000200EAMIDAZOLAM INJECTION  PDPSAZ1Y100
SPE2DP25T54946505310190519                                    701387386609/24/25SPE2DP25T5494.pdf  0000200EAMIDAZOLAM INJECTION  PDPSAZ1Y100
SPE2DP25T54946505310190519                                    701387386809/24/25SPE2DP25T5494.pdf  0000200EAMIDAZOLAM INJECTION  PDPSAZ1Y100
SPE2DP25T54946505310190519                                    701387386909/24/25SPE2DP25T5494.pdf  0000200EAMIDAZOLAM INJECTION  PDPSAZ1Y100
SPE2DP25T54946505310190519                                    701387387009/24/25SPE2DP25T5494.pdf  0000200EAMIDAZOLAM INJECTION  PDPSAZ1Y100
SPE2DP25T54946505310190519                                    701387515009/24/25SPE2DP25T5494.pdf  0000200EAMIDAZOLAM INJECTION  PDPSAZ1Y100
SPE2DP25T54946505310190519                                    701387517109/24/25SPE2DP25T5494.pdf  0000200EAMIDAZOLAM INJECTION  PDPSAZ1Y100
SPE2DP25T54946505310190519                                    701387519309/24/25SPE2DP25T5494.pdf  0000200EAMIDAZOLAM INJECTION  PDPSAZ1Y100
SPE2DS25T386B6515016589063                                    701342747008/26/25SPE2DS25T386B.pdf  0000002EAWRENCH,OXYGEN,MEDIC  PAA09Z1N000
SPE2DS25T386B6515016589063                                    701342747108/26/25SPE2DS25T386B.pdf  0000002EAWRENCH,OXYGEN,MEDIC  PAA09Z1N000
SPE2DS25T386B6515016589063                                    701342747208/26/25SPE2DS25T386B.pdf  0000002EAWRENCH,OXYGEN,MEDIC  PAA09Z1N000
SPE2DS25T386B6515016589063                                    701342748508/26/25SPE2DS25T386B.pdf  0000003EAWRENCH,OXYGEN,MEDIC  PAA09Z1N000
SPE2DS25T386B6515016589063                                    701342833008/26/25SPE2DS25T386B.pdf  0000003EAWRENCH,OXYGEN,MEDIC  PAA09Z1N000
SPE2DS25T386B6515016589063                                    701344472008/26/25SPE2DS25T386B.pdf  0000002EAWRENCH,OXYGEN,MEDIC  PAA09Z1N000
SPE2DS25T410Q6515016589063                                    701353933809/02/25SPE2DS25T410Q.pdf  0000002EAWRENCH,OXYGEN,MEDIC  PAA09Z1N000
SPE2DS25T410Q6515016589063                                    701353942209/02/25SPE2DS25T410Q.pdf  0000004EAWRENCH,OXYGEN,MEDIC  PAA09Z1N000
SPE2DS25T410Q6515016589063                                    701353992409/02/25SPE2DS25T410Q.pdf  0000001EAWRENCH,OXYGEN,MEDIC  PAA09Z1N000
SPE2DS25T410Q6515016589063                                    701353992509/02/25SPE2DS25T410Q.pdf  0000001EAWRENCH,OXYGEN,MEDIC  PAA09Z1N000
SPE2DS25T410Q6515016589063                                    701353992609/02/25SPE2DS25T410Q.pdf  0000001EAWRENCH,OXYGEN,MEDIC  PAA09Z1N000
SPE2DS25T410Q6515016589063                                    701353992709/02/25SPE2DS25T410Q.pdf  0000001EAWRENCH,OXYGEN,MEDIC  PAA09Z1N000
SPE2DS25T410Q6515016589063                                    701353992809/02/25SPE2DS25T410Q.pdf  0000001EAWRENCH,OXYGEN,MEDIC  PAA09Z1N000
SPE2DS25T410Q6515016589063                                    701355739409/02/25SPE2DS25T410Q.pdf  0000006EAWRENCH,OXYGEN,MEDIC  PAA09Z1N000
SPE2DS25T410Q6515016589063                                    701356111609/02/25SPE2DS25T410Q.pdf  0000001EAWRENCH,OXYGEN,MEDIC  PAA09Z1N000
SPE2DS25T445G6515015238467                                    701368517109/15/25SPE2DS25T445G.pdf  0000001PGBAG,COLLECTION,DRAI  PAA20Z1N000
SPE2DS25T479D6515010475368                                    701385404309/24/25SPE2DS25T479D.pdf  0000003PGTUBE,TRACHEAL        DVS00Z1N000
SPE2DS25T479E6510009355823                                    701385321709/24/25SPE2DS25T479E.pdf  0000001PGBANDAGE,ELASTIC      DKJ00Z1N000
SPE2DS25T479F6515012571916                                    701385321209/24/25SPE2DS25T479F.pdf  0000010EABRACE,ANKLE          DPE00Z1N000
SPE2DS25T479G6515014829080                                    701385321009/24/25SPE2DS25T479G.pdf  0000001PGPLEDGETS,CARDIOVASC  DDM01Z1N000
SPE2DS25T479H6515013636545                                    701385006809/24/25SPE2DS25T479H.pdf  0000003PGCONDOM               PLCL5Z1N000
SPE2DS25T479J6515014586057                                    701385250909/24/25SPE2DS25T479J.pdf  0000001KTBASIC CORPSMAN KIT,  PDPSFZ1N000
SPE2DS25T479L6515015830475                                    701385408909/24/25SPE2DS25T479L.pdf  0000001PGSYRINGE,HYPODERMIC   DJM04Z1N000
SPE2DS25T479M6515016297044                                    701385447309/24/25SPE2DS25T479M.pdf  0000001EACLAMP,HEMORRHAGE CO  PLCL5Z1N000
SPE2DS25T479N6515014526951                                    701385409509/24/25SPE2DS25T479N.pdf  0000001PGADMINISTRATION SET,  PDPSFZ1N000
SPE2DS25T479P6515016742741                                    701385404109/24/25SPE2DS25T479P.pdf  0000001PGNEEDLE,ACUPUNCTURE   PLCL5Z1N000
SPE2DS25T479Q6515015161581                                    701385404209/24/25SPE2DS25T479Q.pdf  0000003EASUCTION UNIT,FIELD   PDPSFZ1N000
SPE2DS25T479R6515001048695                                    701385403409/24/25SPE2DS25T479R.pdf  0000001BXCATHETER,URETHRAL    DJM04Z1N000
SPE2DS25T479R6515001048695                                    701387515309/24/25SPE2DS25T479R.pdf  0000001BXCATHETER,URETHRAL    DJM04Z1N000
SPE2DS25T479S6550016809339                                    701385404809/24/25SPE2DS25T479S.pdf  0000002BXTEST STRIPS,GLUCOSE  PDPSFZ1N000
SPE2DS25T479T6550012215400                                    701385321109/24/25SPE2DS25T479T.pdf  0000001BTTEST STRIPS AND COL  DMD01Z1N000
SPE2DS25T479T6550012215400                                    701385409309/24/25SPE2DS25T479T.pdf  0000001BTTEST STRIPS AND COL  DMD01Z1N000
SPE2DS25T479T6550012215400                                    701386797009/24/25SPE2DS25T479T.pdf  0000003BTTEST STRIPS AND COL  DMD01Z1N000
SPE2DS25T479U8120012942070                                    701385412909/24/25SPE2DS25T479U.pdf  0000006EACYLINDER,COMPRESSED  PDPSFZ1N000
SPE2DS25T479U8120012942070                                    701387427109/24/25SPE2DS25T479U.pdf  0000003EACYLINDER,COMPRESSED  PDPSFZ1N000
SPE2DS25T479V6515017065795                                    701385404709/24/25SPE2DS25T479V.pdf  0000001BXINFUSOR,PRESSURE,BL  DJM04Z1N000
SPE2DS25T479V6515017065795                                    701387516409/24/25SPE2DS25T479V.pdf  0000011BXINFUSOR,PRESSURE,BL  DJM04Z1N000
SPE2DS25T479W6515013805419                                    701385380709/24/25SPE2DS25T479W.pdf  0000001PGGLOVES,SURGEONS'     DPE00Z1N000
SPE2DS25T479W6515013805419                                    701386816809/24/25SPE2DS25T479W.pdf  0000001PGGLOVES,SURGEONS'     DPE00Z1N000
SPE2DS25T479X6515016477257                                    701385406109/24/25SPE2DS25T479X.pdf  0000003EASPHYGMOMANOMETER     DDM01Z1N000
SPE2DS25T479X6515016477257                                    701387460109/24/25SPE2DS25T479X.pdf  0000004EASPHYGMOMANOMETER     DDM01Z1N000
SPE2DS25T479X6515016477257                                    701387518309/24/25SPE2DS25T479X.pdf  0000002EASPHYGMOMANOMETER     DDM01Z1N000
SPE2DS25T479Y6515015474411                                    701385820109/24/25SPE2DS25T479Y.pdf  0000003EAKIT,O-RING,BLOOD FL  PDPSFZ1N000
SPE2DS25T479Z6515015752772                                    701385381509/24/25SPE2DS25T479Z.pdf  0000003EACARD CASUALTY RESPO  DJM04Z1N000
SPE2DS25T480A6510016974209                                    701386416409/24/25SPE2DS25T480A.pdf  0000002EADRESSING,BURN CONTA  DMD01Z1N000
SPE2DS25T480C6515015965311                                    701385110509/24/25SPE2DS25T480C.pdf  0000030EAPUMP,INTRAVENOUS IN  DST00Z1N000
SPE2DS25T480D6640014616510                                    701387891409/24/25SPE2DS25T480D.pdf  0000050PGBOTTLE,SCREW CAP     DOE00Z1N000
SPE2DS25T480E6630015208479                                    701386462609/24/25SPE2DS25T480E.pdf  0000005PGCELL,COLORIMETER     DOE00Z1N000
SPE2DS25T480F6545017226568                                    701386472209/24/25SPE2DS25T480F.pdf  0000004EABAG,MEDICAL INSTRUM  PDPSFZ1N000
SPE2DS25T480G6515015386349                                    701386467909/24/25SPE2DS25T480G.pdf  0000001PGSYRINGE,HYPODERMIC   PLCL5Z1N000
SPE2DS25T480H6520015680437                                    701386462509/24/25SPE2DS25T480H.pdf  0000001PGMANDREL,DENTAL HAND  DOE00Z1N000
SPE2DS25T480J8510015197739                                    701386457209/24/25SPE2DS25T480J.pdf  0000003PGBABYPOWDER,CORNSTAR  PDPSFZ1N000
SPE2DS25T480J8510015197739                                    701386500309/24/25SPE2DS25T480J.pdf  0000002PGBABYPOWDER,CORNSTAR  PDPSFZ1N000
SPE2DS25T480K6510013656772                                    701385237009/24/25SPE2DS25T480K.pdf  0000001PGSPONGE,SURGICAL      PDPSFZ1N000
SPE2DS25T480L6640001655851                                    701386503609/24/25SPE2DS25T480L.pdf  0000001EAFUNNEL,COMMON,LABOR  DOE00Z1N000
SPE2DS25T480M7210009356665                                    701384922709/24/25SPE2DS25T480M.pdf  0000035EABLANKET,SURVIVAL     DOE00G1N000
SPE2DS25T480M7210009356665                                    701384922909/24/25SPE2DS25T480M.pdf  0000025EABLANKET,SURVIVAL     DOE00G1N000
SPE2DS25T480N6515015595855                                    701386589609/24/25SPE2DS25T480N.pdf  0000020EASUPPORT,PELVIC       DDM01Z1N000
SPE2DS25T480P6515015139276                                    701389414709/24/25SPE2DS25T480P.pdf  0000001EARESUSCITATION KIT,M  DDM01Z1N000
SPE2DS25T480Q6515016867465                                    701389414209/24/25SPE2DS25T480Q.pdf  0000005EATAPE,KINESIOLOGY H2  DVS00Z1N000
SPE2DS25T480R6515015139497                                    701389415209/24/25SPE2DS25T480R.pdf  0000001EAEQUIPMENT PACK,REPL  PDPSFZ1N000
SPE2DS25T480S6510015227376                                    701389414509/24/25SPE2DS25T480S.pdf  0000001PGBANDAGE,GAUZE,SELF-  PDPSFZ1N000
SPE2DS25T480T6515016131594                                    701389414009/24/25SPE2DS25T480T.pdf  0000001EAPAD,ELECTRODE,DEFIB  DMK00Z1N000
SPE2DS25T480U6515013343346                                    701386788809/24/25SPE2DS25T480U.pdf  0000001PGAIRWAY,PHARYNGEAL    PLCL5Z1N000
SPE2DS25T480V6515015147535                                    701386773509/24/25SPE2DS25T480V.pdf  0000001EAGONIOMETER,ORTHOPED  DPE00Z1N000
SPE2DS25T480W6515016140551                                    701389414109/24/25SPE2DS25T480W.pdf  0000001PGCLAMP,TUBING,REGULA  DCA00C1N000
SPE2DS25T480X6510011621558                                    701386786209/24/25SPE2DS25T480X.pdf  0000002BXDRESSING OP-SITE PE  DTP00Z1N000
SPE2DS25T480Y6515017164819                                    701389414309/24/25SPE2DS25T480Y.pdf  0000005EAAIRWAY,SUPRAGLOTTIC  DPE00Z1N000
SPE2DS25T480Z6515015410635                                    701386737409/24/25SPE2DS25T480Z.pdf  0000010EANEEDLE,DECOMPRESSIO  DPE00Z1N000
SPE2DS25T481A6515015550446                                    701386794209/24/25SPE2DS25T481A.pdf  0000004PGADMINISTRATION SET,  PLCL5Z1N000
SPE2DS25T481B6510015730300                                    701389415309/24/25SPE2DS25T481B.pdf  0000040EADRESSING,CHEST SEAL  DMD01Z1N000
SPE2DS25T481D6515013093477                                    701386777109/24/25SPE2DS25T481D.pdf  0000002PGSEAL,PULL TIGHT,SEC  DDM01Z1N000
SPE2DS25T481E6515015493473                                    701386666409/24/25SPE2DS25T481E.pdf  0000001PGSYRINGE AND NEEDLE,  DJM04Z1N000
SPE2DS25T481F6515016616483                                    701386788309/24/25SPE2DS25T481F.pdf  0000002BXRETRACTOR,GENERAL O  DDP00Z1N000
SPE2DS25T481H6515016735849                                    701386797309/24/25SPE2DS25T481H.pdf  0000001EABRACE,KNEE           PLCL5Z1N000
SPE2DS25T481J6515016735887                                    701386797509/24/25SPE2DS25T481J.pdf  0000005EABRACE,KNEE           DDP00Z1N000
SPE2DS25T481K6515016735867                                    701386788709/24/25SPE2DS25T481K.pdf  0000005EABRACE,KNEE           DVS00Z1N000
SPE2DS25T481L6515016768690                                    701386786509/24/25SPE2DS25T481L.pdf  0000001EAKIT,HOSE,WASTE       DDP00Z1N000
SPE2DS25T481M6515015927709                                    701386791909/24/25SPE2DS25T481M.pdf  0000004EABAG,MEDICAL,INTUBAT  PDPSFZ1N000
SPE2DS25T481N6515016551398                                    701386786609/24/25SPE2DS25T481N.pdf  0000001BXTUBE,TRACHEAL        DBW01Z1N000
SPE2DS25T481P6515014634233                                    701386786409/24/25SPE2DS25T481P.pdf  0000002PGDRAINAGE UNIT,PLEUR  DPE00Z1N000
SPE2DS25T481P6515014634233                                    701387515809/24/25SPE2DS25T481P.pdf  0000001PGDRAINAGE UNIT,PLEUR  DPE00Z1N000
SPE2DS25T481Q6515013077474                                    701386791709/24/25SPE2DS25T481Q.pdf  0000004EABLADE,LARYNGOSCOPE   DJM04Z1N000
SPE2DS25T481Q6515013077474                                    701389205909/24/25SPE2DS25T481Q.pdf  0000001EABLADE,LARYNGOSCOPE   DJM04Z1N000
SPE2DS25T481R6515016584300                                    701386794309/24/25SPE2DS25T481R.pdf  0000002CSRESUSCITATOR,HAND O  PDPSFZ1N000
SPE2DS25T481S6515015168732                                    701386786809/24/25SPE2DS25T481S.pdf  0000004EAWRENCH,OXYGEN        DPE00Z1N000
SPE2DS25T481S6515015168732                                    701387163709/24/25SPE2DS25T481S.pdf  0000007EAWRENCH,OXYGEN        DPE00Z1N000
SPE2DS25T481T6545017135044                                    701386791609/24/25SPE2DS25T481T.pdf  0000004EABAG,MEDICAL INSTRUM  PDPSFZ1N000
SPE2DS25T481T6545017135044                                    701389213309/24/25SPE2DS25T481T.pdf  0000004EABAG,MEDICAL INSTRUM  PDPSFZ1N000
SPE2DS25T481T6545017135044                                    701389285609/24/25SPE2DS25T481T.pdf  0000002EABAG,MEDICAL INSTRUM  PDPSFZ1N000
SPE2DS25T481U6515003220770                                    701386769909/24/25SPE2DS25T481U.pdf  0000002EACURETTE,EAR          DVS00Z1N000
SPE2DS25T481V6510013259771                                    701386786309/24/25SPE2DS25T481V.pdf  0000003PGBANDAGE,ELASTIC      PDPSFZ1N000
SPE2DS25T481W6515013702217                                    701386794409/24/25SPE2DS25T481W.pdf  0000001PGADAPTER,OXYGEN FLOW  DPE00Z1N000
SPE2DS25T481X6515003651820                                    701386759909/24/25SPE2DS25T481X.pdf  0000001EASCISSORS,GENERAL SURGDPE00Z1N000
SPE2DS25T481Y6515014630901                                    701386768009/24/25SPE2DS25T481Y.pdf  0000005EASTIMULATOR,NERVE,TR  PDPSFZ1N000
SPE2DS25T481Z6515013110360                                    701386776609/24/25SPE2DS25T481Z.pdf  0000001PGSUTURE KIT,SURGICAL  DDM01Z1N000
SPE2DS25T482A6515017169209                                    701386791509/24/25SPE2DS25T482A.pdf  0000002EAMONITORING KIT,BLOO  PDPSFZ1N000
SPE2DS25T482A6515017169209                                    701389213409/24/25SPE2DS25T482A.pdf  0000002EAMONITORING KIT,BLOO  PDPSFZ1N000
SPE2DS25T482A6515017169209                                    701389213609/24/25SPE2DS25T482A.pdf  0000002EAMONITORING KIT,BLOO  PDPSFZ1N000
SPE2DS25T482B6515013948327                                    701382084909/24/25SPE2DS25T482B.pdf  0000004PGSTYLET,TRACHEAL TUB  DBW01Z1N000
SPE2DS25T482C6515014196389                                    701386759409/24/25SPE2DS25T482C.pdf  0000001EAMASK,AIRWAY,LARYNGE  DDP00Z1N000
SPE2DS25T482D6545015842561                                    701386791809/24/25SPE2DS25T482D.pdf  0000006EABAG,MEDICAL INSTRUM  DTP00Z1N000
SPE2DS25T482E6515014524435                                    701386788909/24/25SPE2DS25T482E.pdf  0000004EASUPPORT,CERVICAL     DPE00Z1N000
SPE2DS25T482F6515012761417                                    701386776509/24/25SPE2DS25T482F.pdf  0000001EAMASK,ORONASAL        DPE00Z1N000
SPE2DS25T482G6515015196348                                    701386769309/24/25SPE2DS25T482G.pdf  0000001PGGLOVES,SURGEONS'     PLCL5Z1N000
SPE2DS25T482H6515015965192                                    701386767809/24/25SPE2DS25T482H.pdf  0000002PGADMINISTRATION SET,  DMK00Z1N000
SPE2DS25T482J6545015221031                                    701386653809/24/25SPE2DS25T482J.pdf  0000001EABAG,MEDICAL SUPPLIE  DKJ00Z1N000
SPE2DS25T482K6515017024825                                    701386791009/24/25SPE2DS25T482K.pdf  0000001CSNEEDLE AND GUARD,HY  DMB03Z1N000
SPE2DS25T482L6515015295289                                    701386779809/24/25SPE2DS25T482L.pdf  0000002PGNEEDLE,HYPODERMIC,V  DDP00Z1N000
SPE2DS25T482M6515016545269                                    701386788609/24/25SPE2DS25T482M.pdf  0000001BXTRANSDUCER,PHYSIOLO  DVS00Z1N000
SPE2DS25T482N6515015217976                                    701386776109/24/25SPE2DS25T482N.pdf  0000005EATOURNIQUET,NONPNEUM  DOE00Z1N000
SPE2DS25T482P6515015306147                                    701386794909/24/25SPE2DS25T482P.pdf  0000001PGINTRAOSSEOUS INFUSI  DMD01Z1N000
SPE2DS25T482Q6515017176938                                    701386786009/24/25SPE2DS25T482Q.pdf  0000001BXMASK,OXYGEN          DJB03Z1N000
SPE2DS25T482R6550015416661                                    701386794609/24/25SPE2DS25T482R.pdf  0000004KTBIOLOGICAL SAMPLING  DTP00Z1N000
SPE2DS25T482S6515017231180                                    701386788209/24/25SPE2DS25T482S.pdf  0000002EABATTERY,ASSEMBLY,BL  DDM01Z1N000
SPE2DS25T482T6515016324167                                    701386791209/24/25SPE2DS25T482T.pdf  0000002BXPLUG,EAR             DVS00Z1N000
SPE2DS25T482U6515016996805                                    701358643209/24/25SPE2DS25T482U.pdf  0000004EABRACE,ANKLE          PDPSFZ1N000
SPE2DS25T482U6515016996805                                    701386797409/24/25SPE2DS25T482U.pdf  0000020EABRACE,ANKLE          PDPSFZ1N000
SPE2DS25T482V6515013365874                                    701386791109/24/25SPE2DS25T482V.pdf  0000003PGCATHETER AND NEEDLE  DJM04Z1N000
SPE2DS25T482V6515013365874                                    701387521909/24/25SPE2DS25T482V.pdf  0000001PGCATHETER AND NEEDLE  DJM04Z1N000
SPE2DS25T482W6515013181535                                    701386864509/24/25SPE2DS25T482W.pdf  0000001EASENSOR,OXYGEN MONIT  PDPSFZ1N000
SPE2DS25T482X6515015245785                                    701386816909/24/25SPE2DS25T482X.pdf  0000003EACATHETER,INTRAVENOU  DDP00Z1N000
SPE2DS25T482Y6515015731577                                    701386774909/24/25SPE2DS25T482Y.pdf  0000001PGANESTHESIA SET,SPIN  DDM01Z1N000
SPE2DS25T482Z6515016286601                                    701389414409/24/25SPE2DS25T482Z.pdf  0000015EAADAPTER,ELECTRODE,E  PDPSFZ1N000
SPE2DS25T483A6510015386292                                    701386864409/24/25SPE2DS25T483A.pdf  0000030EABANDAGE,PLASTIC WRA  DST00Z1N000
SPE2DS25T483B6515015038228                                    701386816409/24/25SPE2DS25T483B.pdf  0000020EATUBING,EXTENSION,BL  DBW01Z1N000
SPE2DS25T483B6515015038228                                    701387382809/24/25SPE2DS25T483B.pdf  0000030EATUBING,EXTENSION,BL  DBW01Z1N000
SPE2DS25T483C6515012685471                                    701386980509/24/25SPE2DS25T483C.pdf  0000006PGDECANTER,BAG,INTRAV  DJM04Z1N000
SPE2DS25T483D6510015513496                                    701386971909/24/25SPE2DS25T483D.pdf  0000003PGAPPLICATOR,SKIN,ANT  DST00Z1N000
SPE2DS25T483E6515016870970                                    701386815909/24/25SPE2DS25T483E.pdf  0000020PGELECTRODE,ELECTRONI  DVS00Z1N000
SPE2DS25T483F6515005648242                                    701387062809/24/25SPE2DS25T483F.pdf  0000002PGAPPLICATOR,DISPOSAB  PLCL5Z1N000
SPE2DS25T483G6510002007010                                    701387125409/24/25SPE2DS25T483G.pdf  0000002ROBANDAGE,GAUZE        DMD01Z1N000
SPE2DS25T483H6515011398197                                    701387092509/24/25SPE2DS25T483H.pdf  0000004EARETRACTOR,VAGOTOMY,WEDMB03Z1N000
SPE2DS25T483J6540010775406                                    701387166609/24/25SPE2DS25T483J.pdf  0000002EAOCCLUDER,EYE         DMD01Z1N000
SPE2DS25T483K6510010898207                                    701387092409/24/25SPE2DS25T483K.pdf  0000007EABANDAGE,ELASTIC      DMD01Z1N000
SPE2DS25T483L6515011744987                                    701387166309/24/25SPE2DS25T483L.pdf  0000001PGSURGICAL PACK,DISPO  DDP00Z1N000
SPE2DS25T483M6515013608987                                    701387125909/24/25SPE2DS25T483M.pdf  0000001PGMASK,ORONASAL        DDP00Z1N000
SPE2DS25T483N6515011220148                                    701387162009/24/25SPE2DS25T483N.pdf  0000002EACUFF,SPHYGMOMANOMET  PLCL5L1N000
SPE2DS25T483P6515012376082                                    701387166809/24/25SPE2DS25T483P.pdf  0000003PGMOUTHPIECE,SPIROMET  DDP00Z1N000
SPE2DS25T483Q6515011978826                                    701387162609/24/25SPE2DS25T483Q.pdf  0000001ROSTOCKINET,SURGICAL   PDPSFZ1N000
SPE2DS25T483R6515013851091                                    701387171009/24/25SPE2DS25T483R.pdf  0000002EATESTER,LEAKAGE,COLO  DMK00Z1N000
SPE2DS25T483S6515011858836                                    701387163109/24/25SPE2DS25T483S.pdf  0000001PGCURETTE,UTERINE,SUC  DJB03Z1N000
SPE2DS25T483T6515016738476                                    701387162709/24/25SPE2DS25T483T.pdf  0000005EABRACE,ANKLE          DDM01Z1N000
SPE2DS25T483U6515015998034                                    701387163809/24/25SPE2DS25T483U.pdf  0000001EAOPERATING APPARATUS  DPE00Z1N000
SPE2DS25T483V6515012699183                                    701387092709/24/25SPE2DS25T483V.pdf  0000001PGPAPER,ELECTROCARDIO  DDP00Z1N000
SPE2DS25T483W6515013641047                                    701387116909/24/25SPE2DS25T483W.pdf  0000002EASUCTION UNIT,AIRWAY  PLCL5Z1N000
SPE2DS25T483X6515014467772                                    701387125809/24/25SPE2DS25T483X.pdf  0000002EASCREW,BONE           DJM04Z1N000
SPE2DS25T483Y6515015862048                                    701387166209/24/25SPE2DS25T483Y.pdf  0000001EAELECTRODE,SURGICAL   PLCL5Z1N000
SPE2DS25T483Z6515016083272                                    701387171109/24/25SPE2DS25T483Z.pdf  0000001EAFILTER ELEMENT,VENT  DJM04Z1N000
SPE2DS25T484A6510016955824                                    701387177409/24/25SPE2DS25T484A.pdf  0000016EAGAUZE,PACKING        DKJ00Z1N000
SPE2DS25T484B6515013669738                                    701387127709/24/25SPE2DS25T484B.pdf  0000001ROSTOCKINET,SURGICAL   DJB03Z1N000
SPE2DS25T484B6515013669738                                    701387163309/24/25SPE2DS25T484B.pdf  0000001ROSTOCKINET,SURGICAL   DJB03Z1N000
SPE2DS25T484C6515015138380                                    701387166709/24/25SPE2DS25T484C.pdf  0000007PRSUPPORT,ARCH         DDM01Z1N000
SPE2DS25T484D6515014737526                                    701387125709/24/25SPE2DS25T484D.pdf  0000002PGCANNULA,NASAL,OXYGE  DMB03Z1N000
SPE2DS25T484E6530004808286                                    701387125309/24/25SPE2DS25T484E.pdf  0000001EALIGHT,DIAGNOSTIC-EX  DOE00Z1N000
SPE2DS25T484E6530004808286                                    701389359809/24/25SPE2DS25T484E.pdf  0000001EALIGHT,DIAGNOSTIC-EX  DOE00Z1N000
SPE2DS25T484F6515016887155                                    701387162109/24/25SPE2DS25T484F.pdf  0000001EATESTER,ELECTROCARDI  DDM01Z1N000
SPE2DS25T484G6515014397266                                    701387170009/24/25SPE2DS25T484G.pdf  0000001EASTYLET,URINARY CATH  DVS00Z1N000
SPE2DS25T484H6515016996436                                    701387163009/24/25SPE2DS25T484H.pdf  0000010EABRACE,WRIST AND FOR  DJB03Z1N000
SPE2DS25T484J6515011643755                                    701387062909/24/25SPE2DS25T484J.pdf  0000004PGMASK,ORONASAL        DDM01Z1N000
SPE2DS25T484J6515011643755                                    701389005309/24/25SPE2DS25T484J.pdf  0000001PGMASK,ORONASAL        DDM01Z1N000
SPE2DS25T484K6515015423720                                    701387116809/24/25SPE2DS25T484K.pdf  0000002RLTUBING,BREATHING,AE  DPE00Z1N000
SPE2DS25T484L6510015857696                                    701387166009/24/25SPE2DS25T484L.pdf  0000002PGPAD,POST SURGICAL,O  DST00Z1N000
SPE2DS25T484M6545015969140                                    701387163509/24/25SPE2DS25T484M.pdf  0000006EABAG,MEDICAL INSTRUM  PDPSFZ1N000
SPE2DS25T484N6515016996445                                    701387163609/24/25SPE2DS25T484N.pdf  0000010EABRACE,WRIST AND FOR  PLCL5Z1N000
SPE2DS25T484P6515015965696                                    701387281009/24/25SPE2DS25T484P.pdf  0000001PGTUBE,GAS SAMPLING,V  DJM04Z1N000
SPE2DS25T484Q6515015150197                                    701387359709/24/25SPE2DS25T484Q.pdf  0000005PGGLOVE,PATIENT EXAMI  DMB03Z1N000
SPE2DS25T484Q6515015150197                                    701389476709/24/25SPE2DS25T484Q.pdf  0000001PGGLOVE,PATIENT EXAMI  DMB03Z1N000
SPE2DS25T484Q6515015150197                                    701389620109/24/25SPE2DS25T484Q.pdf  0000004PGGLOVE,PATIENT EXAMI  DMB03Z1N000
SPE2DS25T484R6550012694302                                    701387345409/24/25SPE2DS25T484R.pdf  0000001EACONTROL,COOMBS TEST  DMD01Z1N000
SPE2DS25T484R6550012694302                                    701387501609/24/25SPE2DS25T484R.pdf  0000001EACONTROL,COOMBS TEST  DMD01Z1N000
SPE2DS25T484R6550012694302                                    701389232709/24/25SPE2DS25T484R.pdf  0000001EACONTROL,COOMBS TEST  DMD01Z1N000
SPE2DS25T484S6510015584114                                    701387338509/24/25SPE2DS25T484S.pdf  0000080EABANDAGE,EMERGENCY T  DMD01Z1N000
SPE2DS25T484S6510015584114                                    701389598909/24/25SPE2DS25T484S.pdf  0000004EABANDAGE,EMERGENCY T  DMD01Z1N000
SPE2DS25T484T6515016967098                                    701387208209/24/25SPE2DS25T484T.pdf  0000010EAENHANCER,CIRCULATOR  DBW01Z1Y100
SPE2DS25T484T6515016967098                                    701387208809/24/25SPE2DS25T484T.pdf  0000010EAENHANCER,CIRCULATOR  DBW01Z1Y100
SPE2DS25T484T6515016967098                                    701387384509/24/25SPE2DS25T484T.pdf  0000010EAENHANCER,CIRCULATOR  DBW01Z1Y100
SPE2DS25T484T6515016967098                                    701387517209/24/25SPE2DS25T484T.pdf  0000010EAENHANCER,CIRCULATOR  DBW01Z1Y100
SPE2DS25T484T6515016967098                                    701387517809/24/25SPE2DS25T484T.pdf  0000010EAENHANCER,CIRCULATOR  DBW01Z1Y100
SPE2DS25T484T6515016967098                                    701387517909/24/25SPE2DS25T484T.pdf  0000010EAENHANCER,CIRCULATOR  DBW01Z1Y100
SPE2DS25T484T6515016967098                                    701387520209/24/25SPE2DS25T484T.pdf  0000010EAENHANCER,CIRCULATOR  DBW01Z1Y100
SPE2DS25T484T6515016967098                                    701387522809/24/25SPE2DS25T484T.pdf  0000010EAENHANCER,CIRCULATOR  DBW01Z1Y100
SPE2DS25T484T6515016967098                                    701387523409/24/25SPE2DS25T484T.pdf  0000010EAENHANCER,CIRCULATOR  DBW01Z1Y100
SPE2DS25T484T6515016967098                                    701387523609/24/25SPE2DS25T484T.pdf  0000010EAENHANCER,CIRCULATOR  DBW01Z1Y100
SPE2DS25T484U6515001050744                                    701387208509/24/25SPE2DS25T484U.pdf  0000001PGTUBE,TRACHEAL        PLCL5Z1N000
SPE2DS25T484U6515001050744                                    701387384109/24/25SPE2DS25T484U.pdf  0000001PGTUBE,TRACHEAL        PLCL5Z1N000
SPE2DS25T484U6515001050744                                    701387384709/24/25SPE2DS25T484U.pdf  0000001PGTUBE,TRACHEAL        PLCL5Z1N000
SPE2DS25T484V6515016999699                                    701387386709/24/25SPE2DS25T484V.pdf  0000001EAAIRWAY,SUPRAGLOTTIC  DCO00Z1N000
SPE2DS25T484V6515016999699                                    701387457709/24/25SPE2DS25T484V.pdf  0000005EAAIRWAY,SUPRAGLOTTIC  DCO00Z1N000
SPE2DS25T484V6515016999699                                    701387518809/24/25SPE2DS25T484V.pdf  0000001EAAIRWAY,SUPRAGLOTTIC  DCO00Z1N000
SPE2DS25T484V6515016999699                                    701387523809/24/25SPE2DS25T484V.pdf  0000001EAAIRWAY,SUPRAGLOTTIC  DCO00Z1N000
SPE2DS25T484V6515016999699                                    701387523909/24/25SPE2DS25T484V.pdf  0000001EAAIRWAY,SUPRAGLOTTIC  DCO00Z1N000
SPE2DS25T484V6515016999699                                    701387524009/24/25SPE2DS25T484V.pdf  0000001EAAIRWAY,SUPRAGLOTTIC  DCO00Z1N000
SPE2DS25T484V6515016999699                                    701387524109/24/25SPE2DS25T484V.pdf  0000001EAAIRWAY,SUPRAGLOTTIC  DCO00Z1N000
SPE2DS25T484V6515016999699                                    701387524209/24/25SPE2DS25T484V.pdf  0000001EAAIRWAY,SUPRAGLOTTIC  DCO00Z1N000
SPE2DS25T484V6515016999699                                    701387524309/24/25SPE2DS25T484V.pdf  0000001EAAIRWAY,SUPRAGLOTTIC  DCO00Z1N000
SPE2DS25T484V6515016999699                                    701387524409/24/25SPE2DS25T484V.pdf  0000001EAAIRWAY,SUPRAGLOTTIC  DCO00Z1N000
SPE2DS25T484V6515016999699                                    701389134809/24/25SPE2DS25T484V.pdf  0000005EAAIRWAY,SUPRAGLOTTIC  DCO00Z1N000
SPE2DS25T484W6515016131594                                    701387382209/24/25SPE2DS25T484W.pdf  0000001EAPAD,ELECTRODE,DEFIB  DMK00Z1N000
SPE2DS25T484W6515016131594                                    701387382309/24/25SPE2DS25T484W.pdf  0000001EAPAD,ELECTRODE,DEFIB  DMK00Z1N000
SPE2DS25T484W6515016131594                                    701387382409/24/25SPE2DS25T484W.pdf  0000001EAPAD,ELECTRODE,DEFIB  DMK00Z1N000
SPE2DS25T484W6515016131594                                    701387382509/24/25SPE2DS25T484W.pdf  0000001EAPAD,ELECTRODE,DEFIB  DMK00Z1N000
SPE2DS25T484W6515016131594                                    701387386109/24/25SPE2DS25T484W.pdf  0000001EAPAD,ELECTRODE,DEFIB  DMK00Z1N000
SPE2DS25T484W6515016131594                                    701387386209/24/25SPE2DS25T484W.pdf  0000001EAPAD,ELECTRODE,DEFIB  DMK00Z1N000
SPE2DS25T484X6515001050720                                    701387208409/24/25SPE2DS25T484X.pdf  0000002PGTUBE,TRACHEAL,MURPHY DPE00Z1N000
SPE2DS25T484X6515001050720                                    701387208609/24/25SPE2DS25T484X.pdf  0000002PGTUBE,TRACHEAL,MURPHY DPE00Z1N000
SPE2DS25T484X6515001050720                                    701387384409/24/25SPE2DS25T484X.pdf  0000002PGTUBE,TRACHEAL,MURPHY DPE00Z1N000
SPE2DS25T484X6515001050720                                    701387520109/24/25SPE2DS25T484X.pdf  0000002PGTUBE,TRACHEAL,MURPHY DPE00Z1N000
SPE2DS25T484X6515001050720                                    701387522709/24/25SPE2DS25T484X.pdf  0000001PGTUBE,TRACHEAL,MURPHY DPE00Z1N000
SPE2DS25T484X6515001050720                                    701387523009/24/25SPE2DS25T484X.pdf  0000002PGTUBE,TRACHEAL,MURPHY DPE00Z1N000
SPE2DS25T484X6515001050720                                    701387523209/24/25SPE2DS25T484X.pdf  0000001PGTUBE,TRACHEAL,MURPHY DPE00Z1N000
SPE2DS25T484Y6550016719115                                    701387382009/24/25SPE2DS25T484Y.pdf  0000001PGTEST KIT,FECAL RAPI  DMD01Z1N000
SPE2DS25T484Y6550016719115                                    701387384009/24/25SPE2DS25T484Y.pdf  0000001PGTEST KIT,FECAL RAPI  DMD01Z1N000
SPE2DS25T484Z6515017231196                                    701387386309/24/25SPE2DS25T484Z.pdf  0000015KTBLOOD WARMER KIT,HO  DJM04Z1Y100
SPE2DS25T485A6515016999685                                    701387208309/24/25SPE2DS25T485A.pdf  0000005EAAIRWAY,SUPRAGLOTTIC  DDP00Z1N000
SPE2DS25T485A6515016999685                                    701387208709/24/25SPE2DS25T485A.pdf  0000005EAAIRWAY,SUPRAGLOTTIC  DDP00Z1N000
SPE2DS25T485A6515016999685                                    701387384309/24/25SPE2DS25T485A.pdf  0000005EAAIRWAY,SUPRAGLOTTIC  DDP00Z1N000
SPE2DS25T485A6515016999685                                    701387515909/24/25SPE2DS25T485A.pdf  0000005EAAIRWAY,SUPRAGLOTTIC  DDP00Z1N000
SPE2DS25T485A6515016999685                                    701387517709/24/25SPE2DS25T485A.pdf  0000005EAAIRWAY,SUPRAGLOTTIC  DDP00Z1N000
SPE2DS25T485A6515016999685                                    701387520009/24/25SPE2DS25T485A.pdf  0000005EAAIRWAY,SUPRAGLOTTIC  DDP00Z1N000
SPE2DS25T485A6515016999685                                    701387520309/24/25SPE2DS25T485A.pdf  0000005EAAIRWAY,SUPRAGLOTTIC  DDP00Z1N000
SPE2DS25T485A6515016999685                                    701387522909/24/25SPE2DS25T485A.pdf  0000005EAAIRWAY,SUPRAGLOTTIC  DDP00Z1N000
SPE2DS25T485A6515016999685                                    701387523309/24/25SPE2DS25T485A.pdf  0000005EAAIRWAY,SUPRAGLOTTIC  DDP00Z1N000
SPE2DS25T485A6515016999685                                    701387523709/24/25SPE2DS25T485A.pdf  0000005EAAIRWAY,SUPRAGLOTTIC  DDP00Z1N000
SPE2DS25T485B6515014495924                                    701387382709/24/25SPE2DS25T485B.pdf  0000003PGADMINISTRATION SET,  PDPSFZ1N000
SPE3SE25Q06917310015703407                                    701360239909/25/25SPE3SE25Q0691.pdf  0000001EACASE,DISPLAY,FOOD    PSPTAZ1N000
SPE3SE25Q06927310015663124                                    701077799009/23/25SPE3SE25Q0692.pdf  0000001EATILTING SKILLET-BRA  DMK01Z1Y100
SPE3SE25Q06937310013147939                                    701380692809/25/25SPE3SE25Q0693.pdf  0000002EAOVEN,BAKING AND ROA  PSPTAZ1Y100
SPE3SE25Q06947310014519689                                    701386581709/19/25SPE3SE25Q0694.pdf  0000001EACOLD FOOD COUNTER,M  DJG00H1Y100
SPE3SE25Q06957310015057768                                    701378687209/19/25SPE3SE25Q0695.pdf  0000001EACOLD FOOD COUNTER,M  DJG00D1Y100
SPE3SE25T11994110015424286                                    701376012909/23/25SPE3SE25T1199.pdf  0000004EAREFRIGERATOR-FREEZE  PSPTPZ1N000
SPE3SE25T12227310012426705                                    701384872409/22/25SPE3SE25T1222.pdf  0000001EACONTROL BOX,KETTLE   PSPTAZ1N000
SPE3SE25T12237320015746125                                    701386589409/22/25SPE3SE25T1223.pdf  0000001EAGARBAGE DISPOSAL MA  DEE00Z1N000
SPE3SE25T12244110015925738                                    701386637809/22/25SPE3SE25T1224.pdf  0000001EAREFRIGERATOR,MECHAN  DMK01Z1N000
SPE3SE25T12254110015225651                                    701376004309/22/25SPE3SE25T1225.pdf  0000001EAREFRIGERATOR,MECHAN  DMK01D1N000
SPE4A025T50645970015736097                                    701380904109/26/25SPE4A025T5064.pdf  0000002EAINSULATOR,STEATITE   GPD00D1N000
SPE4A025T50665320013519429                                    701380547909/26/25SPE4A025T5066.pdf  0000239EARIVET,BLIND          GPD00R1N000
SPE4A025T50665320013519429                                    701383578509/26/25SPE4A025T5066.pdf  0000092EARIVET,BLIND          GPD00R1N000
SPE4A025T50673130001311832                                    701380690209/26/25SPE4A025T5067.pdf  0000002EACAP,PILLOW BLOCK     GPD00L1N000
SPE4A025T50685315014206791                                    701381434209/26/25SPE4A025T5068.pdf  0000001EAPIN,STRAIGHT,HEADLE  GPD00R1N000
SPE4A025T50695305016100475                                    701380691409/26/25SPE4A025T5069.pdf  0000004EASCREW,CAP,SOCKET HE  GPD00Z1N000
SPE4A025T50705305010062042                                    701380691009/26/25SPE4A025T5070.pdf  0000020EASCREW,WOOD           GPD00G1N000
SPE4A025T50715306015706434                                    701381440709/26/25SPE4A025T5071.pdf  0000004EABOLT BLANK           GPD00C1N000
SPE4A025T50726635015642147                                    701381435609/26/25SPE4A025T5072.pdf  0000001SEPROBE SET,EDDY CURR  GPD00Q1N000
SPE4A025T50735306015725726                                    701381437709/26/25SPE4A025T5073.pdf  0000002EABOLT,MACHINE         GPD00R1N000
SPE4A025T50745310998370360                                    701380691309/26/25SPE4A025T5074.pdf  0000004EAWASHER,FLAT          GPD00Z1N000
SPE4A025T50756150015796817                                    701380692209/26/25SPE4A025T5075.pdf  0000001EAWIRING HARNESS       GPD00D1N000
SPE4A025T50765310016773751                                    701380685009/26/25SPE4A025T5076.pdf  0000004EAWASHER,FLAT          GPD00R1N000
SPE4A025T50775975017194447                                    701380682509/26/25SPE4A025T5077.pdf  0000002EASTUFFING TUBE        GPD00G1N000
SPE4A025T50785310016895556                                    701380685109/26/25SPE4A025T5078.pdf  0000008EAWASHER,FLAT          GPD00R1N000
SPE4A025T50785310016895556                                    701381430709/26/25SPE4A025T5078.pdf  0000008EAWASHER,FLAT          GPD00R1N000
SPE4A025T50795306015987462                                    701381441409/26/25SPE4A025T5079.pdf  0000004EABOLT,SQUARE NECK     GPD00D1N000
SPE4A025T50805970011556497                                    701380686609/26/25SPE4A025T5080.pdf  0000001EAINSULATOR,WASHER     GPD00G1N000
SPE4A025T50815305011651262                                    701380687509/26/25SPE4A025T5081.pdf  0000002EASCREW,MACHINE        GPD00G1N000
SPE4A025T50825305121420051                                    701377639809/26/25SPE4A025T5082.pdf  0000008EASCREW,MACHINE        GPD00G1N000
SPE4A025T50835320016932624                                    701380692509/26/25SPE4A025T5083.pdf  0000350EAPIN-RIVET            GPD00C1N000
SPE4A025T50845305013893417                                    701380928209/26/25SPE4A025T5084.pdf  0000003EASCREW ASSEMBLY,PANE  GPD00Q1N000
SPE4A025T50855305015048652                                    701376755909/26/25SPE4A025T5085.pdf  0000004EASCREW,MACHINE        GPD00G1N000
SPE4A025T50866680015986074                                    701380692009/26/25SPE4A025T5086.pdf  0000001EAINDICATOR,LIQUID QU  GPD00Z1N000
SPE4A025T50874030014369888                                    701377950409/26/25SPE4A025T5087.pdf  0000001EAHOOK,HOIST           GPD00D1N000
SPE4A025T50881095015317593                                    701368027909/26/25SPE4A025T5088.pdf  0000001EAFAIRING ASSEMBLY,LE  DTA00C1N000
SPE4A025T50895310016514681                                    701380925609/26/25SPE4A025T5089.pdf  0000001EANUT,SELF-LOCKING,HE  GPD00D1N000
SPE4A025T50905305015867032                                    701380678609/26/25SPE4A025T5090.pdf  0000003EASCREW,MACHINE        GPD00G1N000
SPE4A025T50915365011788733                                    701389114709/26/25SPE4A025T5091.pdf  0000003EABUSHING,MACHINE THR  GPD00C1N000
SPE4A025T50925365015777562                                    701351398109/26/25SPE4A025T5092.pdf  0000001EASHIM                 GPD00D1N000
SPE4A025T50935305013116184                                    701381433509/26/25SPE4A025T5093.pdf  0000005EASCREW ASSEMBLY,PANE  GPD00R1N000
SPE4A025T50944030015245938                                    701386724509/26/25SPE4A025T5094.pdf  0000015EASHACKLE              DTL00D1N000
SPE4A025T50955895015324533                                    701382253909/26/25SPE4A025T5095.pdf  0000001EADSP BOARD            GPD00D1N000
SPE4A025T50966150016783230                                    701368040809/26/25SPE4A025T5096.pdf  0000001EACABLE ASSEMBLY,SPEC  GPD00B1N000
SPE4A125T58695342000581277                                    701375070209/23/25SPE4A125T5869.pdf  0000500EACLIP,MICROPHONE      DAF00Q1N000
SPE4A125T59955365017296589                                    701366775509/26/25SPE4A125T5995.pdf  0000003EABUSHING,SLEEVE       DKB01C1N000
SPE4A125T59965306010463882                                    701380916009/26/25SPE4A125T5996.pdf  0000004EABOLT,SHOULDER        DJS04R1N000
SPE4A125T59974010015814077                                    701380923109/26/25SPE4A125T5997.pdf  0000010EAWIRE ROPE ASSEMBLY,  DAF00C1N000
SPE4A125T59985306015077753                                    701380917809/26/25SPE4A125T5998.pdf  0000002EABOLT,EYE             DLA00L1N000
SPE4A125T59995330015296802                                    701381438509/26/25SPE4A125T5999.pdf  0000010EASEAL,NONMETALLIC SP  GPP52R1N000
SPE4A125T60005365011289888                                    701380687609/26/25SPE4A125T6000.pdf  0000008EASHIM                 DKB01L1N000
SPE4A125T60014710003266044                                    701388996109/26/25SPE4A125T6001.pdf  0000023EATUBE ASSEMBLY,METAL  DVW00C1N000
SPE4A125T60025306016516685                                    701357162109/26/25SPE4A125T6002.pdf  0000002EAROD,CONTINUOUS THRE  DJS04G1N000
SPE4A125T60038040012207181                                    701377013309/26/25SPE4A125T6003.pdf  0000002KTADHESIVE             DAC00D1N000
SPE4A125T60045975017279479                                    701388978309/26/25SPE4A125T6004.pdf  0002084EASTRAP,TIE DOWN,ELEC  DAF00Z1N000
SPE4A125T60054920015730777                                    701383318809/26/25SPE4A125T6005.pdf  0000006EACABLE ASSEMBLY,INTE  DAF00Z1N000
SPE4A125T60065975008929879                                    701380908109/26/25SPE4A125T6006.pdf  0000004EACONDUIT OUTLET       DAF00G1N000
SPE4A125T60075306001775481                                    701382189209/26/25SPE4A125T6007.pdf  0000012EABOLT,EYE             DJS04R1N000
SPE4A125T60085325017212781                                    701347574109/26/25SPE4A125T6008.pdf  0000001EAGROMMET,NONMETALLIC  DJS04G1N000
SPE4A125T60096150016406400                                    701298418209/26/25SPE4A125T6009.pdf  0000042EACABLE ASSEMBLY,SPEC  DAR01C1N000
SPE4A425T07405995012350424                                    701259370309/23/25SPE4A425T0740.pdf  0000009AYWIRING HARNESS,BRAN  DAP00G1Y100
SPE4A525Q14782840017187995                                    701147287409/26/25SPE4A525Q1478.pdf  0000013EASEAL,METALLIC,AIRCR  DDN00D1N000
SPE4A525Q14951560013168881                                    701053074209/25/25SPE4A525Q1495.pdf  0000185EAHORN ASSEMBLY        DLH00C1N000
SPE4A525Q14962840001573002                                    701343136109/19/25SPE4A525Q1496.pdf  0000007EAHUB,COMPRESSOR,AIRC  DHS00R1N000
SPE4A525Q14975330017011922                                    701028687509/29/25SPE4A525Q1497.pdf  0000208EARETAINER,PACKING     DSC00D1N000
SPE4A525Q14981680014262704                                    701343142009/25/25SPE4A525Q1498.pdf  0000008EACOVER,SPINNER ASSY   DLH00C1N000
SPE4A525T213C1730016572224                                    701157491509/23/25SPE4A525T213C.pdf  0000008EASLING,AIRCRAFT MAIN  DSC00C1N000
SPE4A525T324T4010016852909                                    701197953809/23/25SPE4A525T324T.pdf  0000046AYWIRE ROPE ASSEMBLY,  DHT00C1N000
SPE4A525T443K5306016522780                                    701249169109/23/25SPE4A525T443K.pdf  0000011EABOLT                 DJL01Q1N000
SPE4A525T507E5310011732151                                    701272110609/23/25SPE4A525T507E.pdf  0000015EANUT,SPECIAL          DKD00D1N000
SPE4A525T548S5330010981396                                    701289866309/23/25SPE4A525T548S.pdf  0000148EAPACKING,PREFORMED    DKD01D1N000
SPE4A525T592B5310002765733                                    701306322009/23/25SPE4A525T592B.pdf  0001516EAWASHER,FLAT          DDN00P1N000
SPE4A525T712V6695016322520                                    701353642609/23/25SPE4A525T712V.pdf  0000001EATRANSDUCER,PRESSURE  DDH01Z1N000
SPE4A525T712V6695016322520                                    701353642709/23/25SPE4A525T712V.pdf  0000001EATRANSDUCER,PRESSURE  DDH01Z1N000
SPE4A525T712V6695016322520                                    701360233009/23/25SPE4A525T712V.pdf  0000002EATRANSDUCER,PRESSURE  DDH01Z1N000
SPE4A525T736G5310011702962                                    701372113809/23/25SPE4A525T736G.pdf  0000241EAWASHER,FLAT          DYJ00P1N000
SPE4A525T746F4320013343865                                    701373411609/23/25SPE4A525T746F.pdf  0000004EAPLATE,PRESSURE,ROTA  DKH01L1N000
SPE4A525T748L5310014617844                                    701363102609/23/25SPE4A525T748L.pdf  0000064EAWASHER,SPRING TENSI  PARACL1N000
SPE4A525T748P6695013568182                                    701154534509/23/25SPE4A525T748P.pdf  0000028EASAMPLER,LIQUID       DSW01D1N000
SPE4A525T748T1680015818069                                    701372129609/23/25SPE4A525T748T.pdf  0000002EAAEC DOOR SW          DSM02D1N000
SPE4A525T748Z3110009487172                                    701045786909/23/25SPE4A525T748Z.pdf  0000025EABEARING, BALL, ANNULADDM01C1Y100
SPE4A525T749J5330011397126                                    701373299509/23/25SPE4A525T749J.pdf  0000002EASEAL,AIR,FAN MODULE  PARWAC1N000
SPE4A525T749Q1560012369663                                    701372164809/23/25SPE4A525T749Q.pdf  0000005EACHANNEL ASSY,ARMOR   DYJ00Q1N000
SPE4A525T749U2915012039568                                    701372065209/23/25SPE4A525T749U.pdf  0000006EABRACKET              DLH00Z1N000
SPE4A525T775B1560016560957                                    701372194709/26/25SPE4A525T775B.pdf  0000013EABRACKET,STRUCTURAL   DBB01D1N000
SPE4A525T775C4820012177417                                    701343024709/26/25SPE4A525T775C.pdf  0000005EAVALVE,CALIBRATED FL  DJB02G1Y100
SPE4A525T775D5306015955610                                    701343031009/26/25SPE4A525T775D.pdf  0000073EABOLT,SHEAR           DJB02C1N000
SPE4A525T775E1680016889342                                    701363110509/26/25SPE4A525T775E.pdf  0000005EAINSULATION BLANKET,  DSO00C1N000
SPE4A525T775F5305017307351                                    701372188609/26/25SPE4A525T775F.pdf  0000125EASCREW,CLOSE TOLERAN  DBB01C1N000
SPE4A525T775G1560017112024                                    701343155709/26/25SPE4A525T775G.pdf  0000003EAFITTING SET,STRUCTU  DSC00P1N000
SPE4A525T775H5325017289548                                    701363171709/26/25SPE4A525T775H.pdf  0000012EAGROMMET,NONMETALLIC  DLW00C1N000
SPE4A525T775J1680017291641                                    701363122109/26/25SPE4A525T775J.pdf  0000001EAINSTALLATION AND EQ  DSO00C1N000
SPE4A525T775K1680015243569                                    701372249809/26/25SPE4A525T775K.pdf  0000014EAPATCH,AIRCRAFT,MATE  DTD00C1N000
SPE4A525T775L6685016527045                                    701363149309/26/25SPE4A525T775L.pdf  0000002EASENSOR,AMBIENT TEMP  DFP00D1Y100
SPE4A525T775M5310016696656                                    701367071209/26/25SPE4A525T775M.pdf  0000004EANUT,SELF-LOCKING,HE  DBB01D1N000
SPE4A525T775N5841011226910                                    701380916209/26/25SPE4A525T775N.pdf  0000001EARADAR SET SUBASSEMB  DRK00D1N000
SPE4A525T775P5995016748406                                    701380931009/26/25SPE4A525T775P.pdf  0000001EACABLE ASSEMBLY,SPEC  DCG01D1N000
SPE4A525T775Q5365011792404                                    701380682209/26/25SPE4A525T775Q.pdf  0000036EASHIM                 DCD01C1N000
SPE4A525T775Q5365011792404                                    701380910509/26/25SPE4A525T775Q.pdf  0000048EASHIM                 DCD01C1N000
SPE4A525T775Q5365011792404                                    701380910809/26/25SPE4A525T775Q.pdf  0000048EASHIM                 DCD01C1N000
SPE4A525T775Q5365011792404                                    701380911109/26/25SPE4A525T775Q.pdf  0000048EASHIM                 DCD01C1N000
SPE4A525T775R5365013914406                                    701381420009/26/25SPE4A525T775R.pdf  0000005EASPACER,RING          DCD01R1N000
SPE4A525T775S5365017187506                                    701381417209/26/25SPE4A525T775S.pdf  0000002EASPACER,SLEEVE        DCD01G1N000
SPE4A525T775T5340016128466                                    701381428709/26/25SPE4A525T775T.pdf  0000001EASTRAP,RETAINING      GPF46C1N000
SPE4A525T775U5340016126928                                    701381428809/26/25SPE4A525T775U.pdf  0000001EABRACKET,MOUNTING     GPF46D1N000
SPE4A525T775V1680015238004                                    701376000909/26/25SPE4A525T775V.pdf  0000001EADOUBLER ASSEMBLY,AI  GPF46C1N000
SPE4A525T775V1680015238004                                    701380683709/26/25SPE4A525T775V.pdf  0000001EADOUBLER ASSEMBLY,AI  GPF46C1N000
SPE4A525T775W5970008331703                                    701381419509/26/25SPE4A525T775W.pdf  0000002ROTAPE,INSULATION,ELE  DCD01G1N000
SPE4A525T775W5970008331703                                    701383631209/26/25SPE4A525T775W.pdf  0000002ROTAPE,INSULATION,ELE  DCD01G1N000
SPE4A525T775W5970008331703                                    701385816409/26/25SPE4A525T775W.pdf  0000001ROTAPE,INSULATION,ELE  DCD01G1N000
SPE4A525T775X4010013097439                                    701363272609/26/25SPE4A525T775X.pdf  0000028AYWIRE ROPE ASSEMBLY,SIDHT00G1N000
SPE4A525T775Y4010011849719                                    701388984809/26/25SPE4A525T775Y.pdf  0000148EAWIRE ROPE ASSEMBLY,  DHT00G1Y100
SPE4A525T775Z2520012073588                                    701383281609/26/25SPE4A525T775Z.pdf  0000014EASHROUD,AIRFLOW OIL   DAK00V1N000
SPE4A525T776A2840013950931                                    701362940509/26/25SPE4A525T776A.pdf  0000002EADISK,FAN,AIRCRAFT G  PARWAC1N000
SPE4A525T776B1560016897622                                    701259309309/26/25SPE4A525T776B.pdf  0000060EASTIFFENER,AIRCRAFT   DSC00R1N000
SPE4A525T776C3020003288192                                    701383495509/26/25SPE4A525T776C.pdf  0000011EAGEAR,WORM            DSM02C1N000
SPE4A525T776D4920015258100                                    701375626809/26/25SPE4A525T776D.pdf  0000009EAENVELOPE,ENGINE,AIR  DHT00B1N000
SPE4A525T776E4920015106811                                    701373798909/26/25SPE4A525T776E.pdf  0000003EATRANSDUCER,AIRCRAFT  DHT00Z1N000
SPE4A525T776F4920015106811                                    701373790209/26/25SPE4A525T776F.pdf  0000003EATRANSDUCER,AIRCRAFT  DHT00Z1N000
SPE4A525T776G5320014725832                                    701388986609/26/25SPE4A525T776G.pdf  0000085EARIVET,SOLID          DKY00D1N000
SPE4A525T776H3460015890034                                    701362745309/26/25SPE4A525T776H.pdf  0000050EASLEEVE,EXPANSION MA  DSO00Q1N000
SPE4A525T776J6685000359373                                    701381431809/26/25SPE4A525T776J.pdf  0000004EATHERMOSTAT,FLOW CON  DMW01L1N000
SPE4A525T776K5330016905850                                    701374980209/26/25SPE4A525T776K.pdf  0000010EAGASKET               DMA01C1N000
SPE4A525T776L4810001043422                                    700567130409/26/25SPE4A525T776L.pdf  0000003EAVALVE,SOLENOID       DGS00C1N000
SPE4A525T776M2825010100720                                    700567363409/26/25SPE4A525T776M.pdf  0000001AYSEAL RING,STEAM GLA  DGS00D1Y100
SPE4A525T776N4920016684840                                    701363278109/26/25SPE4A525T776N.pdf  0000004EAVALVE                DHT00D1N000
SPE4A525T776P4920016236540                                    701363180009/26/25SPE4A525T776P.pdf  0000002EANRP,POWER CABLE A00  DHT00D1N000
SPE4A525T776Q5975016902386                                    701381430509/26/25SPE4A525T776Q.pdf  0000001EACHASSIS,ELECTRICAL-  DSM02Q1N000
SPE4A525T776R1260015165704                                    700575309709/26/25SPE4A525T776R.pdf  0000016EATRIPOD,TARGET DESIG  DGS00D1N000
SPE4A525T776S5340005387245                                    701389058409/26/25SPE4A525T776S.pdf  0000003EACLAMP,LOOP           DLW00R1N000
SPE4A525T776T6685013830839                                    701360915909/26/25SPE4A525T776T.pdf  0000001EAGAGE,PRESSURE,DIAL   DKN00G1N000
SPE4A525T776U5360012221027                                    701381400909/26/25SPE4A525T776U.pdf  0000001EASPRING,HELICAL,COMP  DJB03C1N000
SPE4A525T776V4710017327789                                    701383402609/26/25SPE4A525T776V.pdf  0000025EATUBE ASSEMBLY,METAL  DSM02D1N000
SPE4A525T776W4710017327791                                    701383402509/26/25SPE4A525T776W.pdf  0000015EATUBE ASSEMBLY,METAL  DSM02D1N000
SPE4A525T776X1560015354017                                    701342951909/26/25SPE4A525T776X.pdf  0000003EAFORMER,AIRCRAFT      DJB02G1N000
SPE4A525T776Y4710017327794                                    701383402409/26/25SPE4A525T776Y.pdf  0000020EATUBE ASSEMBLY,METAL  DSM02D1N000
SPE4A525T776Z9150016563007                                    700882943809/26/25SPE4A525T776Z.pdf  0000016CSGREASE,AUTOMOTIVE    DSW01D1N000
SPE4A525T777A4710017327796                                    701383402309/26/25SPE4A525T777A.pdf  0000025EATUBE ASSEMBLY,METAL  DSM02D1N000
SPE4A525T777B4710017327798                                    701383402109/26/25SPE4A525T777B.pdf  0000020EATUBE ASSEMBLY,METAL  DSM02D1N000
SPE4A525T777C5325003435045                                    701360530509/26/25SPE4A525T777C.pdf  0000075EAGROMMET,NONMETALLIC  DLW00D1N000
SPE4A525T777D4010016171547                                    701380683509/26/25SPE4A525T777D.pdf  0000010EALINK,CHAIN,END       DHT00Z1N000
SPE4A525T777E1680016495104                                    701343023509/26/25SPE4A525T777E.pdf  0000064EANRP,FUSE,900A A343   DCD01P1Y100
SPE4A525T777F2840011314778                                    701383521609/26/25SPE4A525T777F.pdf  0000100EABLADE,TURBINE ROTOR  DAK00C1N000
SPE4A525T777G5365017310658                                    701323316009/26/25SPE4A525T777G.pdf  0000379EASPACER,SLEEVE        DJC03G1N000
SPE4A525T777H1680003485189                                    701375381709/26/25SPE4A525T777H.pdf  0000001EAADAPTER,STABILIZER   DKM01D1N000
SPE4A525T777J2995008716224                                    701372413109/26/25SPE4A525T777J.pdf  0000001EAGUARD ASSY,WHEEL     DJB03D1N000
SPE4A525T777K5961011986173                                    701372065809/26/25SPE4A525T777K.pdf  0000019EATRANSISTOR           DMA01R1N000
SPE4A525T777L4730010219949                                    701389206409/26/25SPE4A525T777L.pdf  0000031EATEE,TUBE             DBC01C1N000
SPE4A525T777M6810007534783                                    701290080109/26/25SPE4A525T777M.pdf  0000063BTMETHANOL             DJP01Z1N000
SPE4A525T777N4920009726030                                    700713828509/26/25SPE4A525T777N.pdf  0000022EAADAPTER,LUBRICATION  DGS00D1N000
SPE4A525T777P1680010927989                                    700923618409/26/25SPE4A525T777P.pdf  0000031EALEVER ASSY,CONTROL   DGS00C1N000
SPE4A525T777Q5330012973587                                    701383362809/26/25SPE4A525T777Q.pdf  0000030EAPACKING,PREFORMED    DSK01D1N000
SPE4A525T777R5330014709415                                    701384772309/26/25SPE4A525T777R.pdf  0000056EAFELT,MECHANICAL,PRE  DCM01L1N000
SPE4A525T777S5340013223409                                    701389310809/26/25SPE4A525T777S.pdf  0000002EASEAT,HELICAL COMPRE  DHS00D1N000
SPE4A525T777T5945015457696                                    700788937309/26/25SPE4A525T777T.pdf  0000054EARELAY,HYBRID         DGS00Q1N000
SPE4A525T777U1615005274722                                    701389052309/26/25SPE4A525T777U.pdf  0000001EASLEEVE ASSY,INPUT,T  GPF46C1N000
SPE4A525T777V4820015174883                                    701383234209/26/25SPE4A525T777V.pdf  0000004EARETAINER,DISK,VALVE  DSM02R1N000
SPE4A525T777W5945012025111                                    701375596609/26/25SPE4A525T777W.pdf  0000006EASOLENOID,ELECTRICAL  DCM01C1N000
SPE4A525T777X5331014261817                                    701372235909/26/25SPE4A525T777X.pdf  0000382EAO-RING               DTJ00P1N000
SPE4A525T777Y4030012734636                                    701375703609/26/25SPE4A525T777Y.pdf  0000002EACLAMP,WIRE ROPE,BOLTEDHT00Z1N000
SPE4A525T777Z2915994706532                                    701382441109/26/25SPE4A525T777Z.pdf  0000001EALEVER AND PAD ASSEM  DAN00C1N000
SPE4A525T777Z2915994706532                                    701389006909/26/25SPE4A525T777Z.pdf  0000001EALEVER AND PAD ASSEM  DAN00C1N000
SPE4A525T778A3040009008235                                    701363236809/26/25SPE4A525T778A.pdf  0000449EASHAFT,SHOULDERED     PARWAD1N000
SPE4A525T778B6150016874359                                    701372025709/26/25SPE4A525T778B.pdf  0000155EALEAD,ELECTRICAL      DYJ00C1N000
SPE4A525T778C1560017305537                                    701363136309/26/25SPE4A525T778C.pdf  0000004EACHANNEL,AIRCRAFT     DSO00D1N000
SPE4A525T778D2840009054789                                    701373394109/26/25SPE4A525T778D.pdf  0000007EAHOUSING,ANTIFRICTIO  DJB04C1Y100
SPE4A525T778E1630017032649                                    701369868809/26/25SPE4A525T778E.pdf  0000002EAROTOR ASSEMBLY,DISC  DKD01C1N000
SPE4A525T778E1630017032649                                    701369868909/26/25SPE4A525T778E.pdf  0000004EAROTOR ASSEMBLY,DISC  DKD01C1N000
SPE4A525T778E1630017032649                                    701369869009/26/25SPE4A525T778E.pdf  0000003EAROTOR ASSEMBLY,DISC  DKD01C1N000
SPE4A525T778F5331001716267                                    701372229209/26/25SPE4A525T778F.pdf  0000010EAO-RING               DTD00L1N000
SPE4A525T778G1680003437550                                    701155196209/26/25SPE4A525T778G.pdf  0000070EAMODULE,FIRE PROTECT  DKD00P1N000
SPE4A525T778H5975017311703                                    701316004909/26/25SPE4A525T778H.pdf  0000007EAUNION,ELECTRICAL CO  DCD01G1N000
SPE4A525T778J4920016855723                                    700845918909/26/25SPE4A525T778J.pdf  0000005EAADAPTER ASSEMBLY,IN  DAB02D1N000
SPE4A525T778K1560017326665                                    701372137609/26/25SPE4A525T778K.pdf  0000010EARIB,STIFFENER,AIRCR  DMA01C1N000
SPE4A525T778L1560017326669                                    701372137409/26/25SPE4A525T778L.pdf  0000010EARIB,STIFFENER,AIRCR  DMA01C1N000
SPE4A525T778M3020000652328                                    701373800309/26/25SPE4A525T778M.pdf  0000006EAGEAR,INTERNAL        DBC01C1N000
SPE4A525T778N5340013239682                                    701381411209/26/25SPE4A525T778N.pdf  0000001EABRACKET,MULTIPLE AN  DAK00D1N000
SPE4A525T778P3020000652328                                    701373788609/26/25SPE4A525T778P.pdf  0000001EAGEAR,INTERNAL        DBC01C1N000
SPE4A625Q16236680014931735                                    701264605410/03/25SPE4A625Q1623.pdf  0000096EATRANSMITTER,LIQUID   DCW01Z1N000
SPE4A625Q18266680013143624                                    701337077810/03/25SPE4A625Q1826.pdf  0000045EARECEIVER,INDICATOR,  DCW01C1Y100
SPE4A625Q18543120015961736                                    701360384610/01/25SPE4A625Q1854.pdf  0000001EABEARING,SLEEVE       DKH01D1N000
SPE4A625Q18556680014931735                                    701375617009/29/25SPE4A625Q1855.pdf  0000056EATRANSMITTER,LIQUID   DCY00Z1N000
SPE4A625Q18563120015961736                                    701223136110/02/25SPE4A625Q1856.pdf  0000001EABEARING,SLEEVE       DKH01D1N000
SPE4A625Q18576680011104639                                    701363126710/02/25SPE4A625Q1857.pdf  0000016EACONTROL,RATE OF FLO  DKH01G1Y100
SPE4A625Q18585305017323882                                    701383427809/24/25SPE4A625Q1858.pdf  0000100EASCREW,CLOSE TOLERAN  DVP00G1N000
SPE4A625Q18595305015350682                                    701360922609/24/25SPE4A625Q1859.pdf  0000001EASCREW,MOUNTING FOOT  DVP00D1N000
SPE4A625Q18635310010737027                                    701388921609/22/25SPE4A625Q1863.pdf  0003000EANUT,SELF-LOCKING,EX  DMB02G1N000
SPE4A625T03SJ5310016529544                                    701268753209/23/25SPE4A625T03SJ.pdf  0000093EAWASHER,SPLIT         DNK00C1N000
SPE4A625T06P15315013479710                                    701151677509/23/25SPE4A625T06P1.pdf  0000007EAPIN,SHOULDER,HEADLE  DNC00R1N000
SPE4A625T07BX5325011842045                                    701277187809/23/25SPE4A625T07BX.pdf  0000125EASTU D,TURNLOCK FASTE DMF00C1N000
SPE4A625T10QF5310016976277                                    701289985409/23/25SPE4A625T10QF.pdf  0000614EANUT,PLAIN,BLIND RIV  DMB03D1N000
SPE4A625T12PG3110017230206                                    701292156209/23/25SPE4A625T12PG.pdf  0000001EABEARING,ROLLER,THRU  GPP19H1N000
SPE4A625T14TK5325017289503                                    701298324709/23/25SPE4A625T14TK.pdf  0000012EAGROMMET,NONMETALLIC  DSE00C1N000
SPE4A625T157Z3120000183956                                    700998669612/16/24SPE4A625T157Z.pdf  0000029EABEARING,PLAIN,SELF-ALDBJ00Z1Y100
SPE4A625T17H85305012170665                                    701154512509/23/25SPE4A625T17H8.pdf  0000596EASCREW,MACHINE        DNK00G1N000
SPE4A625T27L35310016076965                                    701150179909/23/25SPE4A625T27L3.pdf  0000004EAWASHER,KEY           DNK00G1N000
SPE4A625T30AL5306013750524                                    701343167709/23/25SPE4A625T30AL.pdf  0000014EABOLT,MACHINE         DMC01R1N000
SPE4A625T30QJ6150145858612                                    701343176509/02/25SPE4A625T30QJ.pdf  0000001EAWIRING HARNESS,BRAN  DBV00Q1Y100
SPE4A625T32JR5995014547124                                    701337182909/23/25SPE4A625T32JR.pdf  0007536EACABLE ASSEMBLY,RADI  DAP00C1N000
SPE4A625T32UL3120012443874                                    701323180309/23/25SPE4A625T32UL.pdf  0006698EABEARING, SLEEVE      DAM01P1N000
SPE4A625T33LF5306015340417                                    701347569609/23/25SPE4A625T33LF.pdf  0000004EABOLT,MACHINE         DPH00D1N000
SPE4A625T34ZT5977013246022                                    701337153709/23/25SPE4A625T34ZT.pdf  0000723EABRUSH,ELECTRICAL CONTDSC00P1N000
SPE4A625T35LY5995017294711                                    701301711309/23/25SPE4A625T35LY.pdf  0000012EACABLE ASSEMBLY,SPEC  DPJ00Z1N000
SPE4A625T36AB5995014771339                                    701363124709/23/25SPE4A625T36AB.pdf  0000007EACABLE ASSEMBLY,SPEC  DCP00D1N000
SPE4A625T36GC5995015978439                                    701363159909/23/25SPE4A625T36GC.pdf  0000002EAWIRING HARNESS       DCP00Q1N000
SPE4A625T38TH5315013968359                                    701371417709/23/25SPE4A625T38TH.pdf  0000082EAPIN,STRAIGHT,HEADED  DAS01R1N000
SPE4A625T38VS5977001635974                                    701372229509/23/25SPE4A625T38VS.pdf  0000009EARING,ELECTRICAL CON  DZL00C1N000
SPE4A625T38ZW5306012547269                                    701372156109/23/25SPE4A625T38ZW.pdf  0000073EABOLT,CLOSE TOLERANC  DDW01C1N000
SPE4A625T39JJ5995016772075                                    701372038809/23/25SPE4A625T39JJ.pdf  0000041EACABLE ASSEMBLY,SPEC  DLS00Z1N000
SPE4A625T39MK3120017012254                                    701372116809/23/25SPE4A625T39MK.pdf  0000002EABEARING,SLEEVE       DJJ01G1N000
SPE4A625T40BK5310008514142                                    701373781809/23/25SPE4A625T40BK.pdf  0000020EANUT,SELF-LOCKING,EX  GPP29R1N000
SPE4A625T40BP1440009970223                                    701373793809/23/25SPE4A625T40BP.pdf  0000012EAROLLER,GUIDED MISSI  PARFEG1N000
SPE4A625T40BS5305014130779                                    701373800609/23/25SPE4A625T40BS.pdf  0000006EASCREW,CAP,SOCKET HE  DCS01R1N000
SPE4A625T40BX5970012193948                                    701368039209/23/25SPE4A625T40BX.pdf  0000650EAINSULATION SLEEVING,EDNH00B1Y100
SPE4A625T40CW5306010673397                                    701335706909/23/25SPE4A625T40CW.pdf  0000240EABOLT,CLOSE TOLERANC  DTM01C1N000
SPE4A625T40DQ3120008165541                                    701306470409/23/25SPE4A625T40DQ.pdf  0000261EABEARING,SLEEVE       DSD00G1N000
SPE4A625T40DT5305014753371                                    701372029609/23/25SPE4A625T40DT.pdf  0000014EASCR EW,CLOSE TOLERAN DMB02C1N000
SPE4A625T40DW5305013445817                                    701373794409/23/25SPE4A625T40DW.pdf  0000003EASCREW,MACHINE        DMB03G1N000
SPE4A625T40ET5970013201241                                    701071650409/23/25SPE4A625T40ET.pdf  0000032EAINSULATION SLEEVING  DML01B1N000
SPE4A625T40FE6150017200912                                    701343084009/23/25SPE4A625T40FE.pdf  0000007EACABLE ASSEMBLY,SPEC  DBV00D1N000
SPE4A625T40FG5970012182102                                    701264388409/23/25SPE4A625T40FG.pdf  0000633EAINSULATION SLEEVING  DCP00B1Y100
SPE4A625T40FK5306014791492                                    701374956009/23/25SPE4A625T40FK.pdf  0004396EABOLT,TEE HEAD        DTG00G1R100
SPE4A625T40FL5306016472758                                    701368589609/23/25SPE4A625T40FL.pdf  0000067EABOLT,MACHINE         DDF00G1N000
SPE4A625T40GB5325011515086                                    700939645909/23/25SPE4A625T40GB.pdf  0000010EARING,RETAINING       DAW01R1N000
SPE4A625T40GK5320011681836                                    701286270909/23/25SPE4A625T40GK.pdf  0000592EARIVET,BLIND          DMJ00G1Y100
SPE4A625T40GQ4030003771397                                    701357690309/23/25SPE4A625T40GQ.pdf  0000911EASHACKLE              GPP49G1Y100
SPE4A625T40GS2835015938358                                    701372145809/23/25SPE4A625T40GS.pdf  0000002EALOWER PLENUM ASSY    DTH00R1N000
SPE4A625T40GY3120006841168                                    701372119009/23/25SPE4A625T40GY.pdf  0000373EABUSHING,SLEEVE       DNY00G1N000
SPE4A625T43XY5306012242300                                    701343028709/26/25SPE4A625T43XY.pdf  0000244EABOLT                 DSE00P1N000
SPE4A625T43XZ1560013912994                                    701249189109/26/25SPE4A625T43XZ.pdf  0000007EAFRAME,WINDOW,AIRCRA  DJS03R1N000
SPE4A625T43YA1560013912994                                    701289992509/26/25SPE4A625T43YA.pdf  0000005EAFRAME,WINDOW,AIRCRA  DJS03R1N000
SPE4A625T43YB5306013222892                                    701333214009/26/25SPE4A625T43YB.pdf  0000040EABOLT,SHEAR           DJS03D1N000
SPE4A625T43YC5307011296627                                    701387537209/26/25SPE4A625T43YC.pdf  0000011EASTUD,LOCKED IN       DMC01R1N000
SPE4A625T43YD3130012867150                                    701387468609/26/25SPE4A625T43YD.pdf  0000002EAHOUSING,BEARING UNI  DKZ00D1N000
SPE4A625T43YE5325015818559                                    701380337309/26/25SPE4A625T43YE.pdf  0000006EASTUD,PUSH BUTTON FA  DDF00D1N000
SPE4A625T43YE5325015818559                                    701382526009/26/25SPE4A625T43YE.pdf  0000020EASTUD,PUSH BUTTON FA  DDF00D1N000
SPE4A625T43YF5310008775972                                    701387810509/26/25SPE4A625T43YF.pdf  0001447HDWASHER,FLAT          DMB02G1Y100
SPE4A625T43YG5340015134327                                    701387821709/29/25SPE4A625T43YG.pdf  0000002EASTOP,MECHANICAL      GPP29G1N000
SPE4A625T43YH5340016315789                                    701387938009/29/25SPE4A625T43YH.pdf  0000006EADOOR,ACCESS,UTILITY  GPP29G1N000
SPE4A625T43YJ5970001617232                                    701380681509/26/25SPE4A625T43YJ.pdf  0000001GLINSULATING VARNISH,  DAB02G1N000
SPE4A625T43YK5970008272659                                    701380918009/26/25SPE4A625T43YK.pdf  0000001ROTAPE,INSULATION,ELE  DZL00G1N000
SPE4A625T43YL3110011610304                                    701380923009/26/25SPE4A625T43YL.pdf  0000012EABEARING,BALL,ANNULA  DML01D1N000
SPE4A625T43YM5975012673272                                    701380912209/26/25SPE4A625T43YM.pdf  0000001EAJUNCTION BOX ASSEMB  DRE00C1N000
SPE4A625T43YN5970015041253                                    701380901609/26/25SPE4A625T43YN.pdf  0000003ROTAPE,INSULATION,ELE  GPP24D1N000
SPE4A625T43YP5305014798313                                    701380913709/26/25SPE4A625T43YP.pdf  0000090EASCREW,CAP,SOCKET HE  DHH00L1Y100
SPE4A625T43YQ5305014938829                                    701380914209/26/25SPE4A625T43YQ.pdf  0000324EASCREW,CAP,SOCKET HE  DAJ00G1Y100
SPE4A625T43YR3110014944536                                    701380914409/26/25SPE4A625T43YR.pdf  0000048EABEARING,ROLLER,NEED  DKH01D1Y100
SPE4A625T43YS3120014849260                                    701380914009/26/25SPE4A625T43YS.pdf  0000042EABUSHING,SLEEVE       DBJ00G1Y100
SPE4A625T43YT5310016146129                                    701380915309/26/25SPE4A625T43YT.pdf  0000177EAWASHER,FLAT          DAJ00G1Y100
SPE4A625T43YU5995015290051                                    701380902009/26/25SPE4A625T43YU.pdf  0000001EACABLE ASSEMBLY,RADI  DAS02D1N000
SPE4A625T43YV5305015225161                                    701380915509/26/25SPE4A625T43YV.pdf  0000018EASCREW,CAP,SOCKET HE  DML01G1N000
SPE4A625T43YW5305015988071                                    701380928609/26/25SPE4A625T43YW.pdf  0000010EASCREW,CAP,HEXAGON H  DMB02D1N000
SPE4A625T43YX5305016612585                                    701380915809/26/25SPE4A625T43YX.pdf  0000057EASCREW,CAP,SOCKET HE  DVM00G1Y100
SPE4A625T43YY5315016454798                                    701380927509/26/25SPE4A625T43YY.pdf  0000001EAPIN,QUICK RELEASE    DJH02Z1N000
SPE4A625T43YZ5315016551470                                    701380915109/26/25SPE4A625T43YZ.pdf  0000033EAPIN,QUICK RELEASE    DDF00G1Y100
SPE4A625T43ZA5305016880532                                    701380923309/26/25SPE4A625T43ZA.pdf  0000012EASCREW,CAP,SOCKET HE  DLH01D1N000
SPE4A625T43ZB5305015644977                                    701380915609/26/25SPE4A625T43ZB.pdf  0000045EASCREW,CAP,SOCKET HE  DCC02G1N000
SPE4A625T43ZC5320013521952                                    701380678009/26/25SPE4A625T43ZC.pdf  0000241EARIVET,BLIND          DAS01R1N000
SPE4A625T43ZC5320013521952                                    701383578609/26/25SPE4A625T43ZC.pdf  0000050EARIVET,BLIND          DAS01R1N000
SPE4A625T43ZD5305121761789                                    701380909709/26/25SPE4A625T43ZD.pdf  0000002EASCREW,CAP,SOCKET HE  DDF00G1N000
SPE4A625T43ZE5970010138611                                    701380681609/26/25SPE4A625T43ZE.pdf  0000001QTINSULATING COMPOUND  DPJ00T1N000
SPE4A625T43ZE5970010138611                                    701381418909/26/25SPE4A625T43ZE.pdf  0000001QTINSULATING COMPOUND  DPJ00T1N000
SPE4A625T43ZE5970010138611                                    701381427609/26/25SPE4A625T43ZE.pdf  0000001QTINSULATING COMPOUND  DPJ00T1N000
SPE4A625T43ZE5970010138611                                    701382062409/26/25SPE4A625T43ZE.pdf  0000001QTINSULATING COMPOUND  DPJ00T1N000
SPE4A625T43ZE5970010138611                                    701383633309/26/25SPE4A625T43ZE.pdf  0000001QTINSULATING COMPOUND  DPJ00T1N000
SPE4A625T43ZE5970010138611                                    701388326709/26/25SPE4A625T43ZE.pdf  0000001QTINSULATING COMPOUND  DPJ00T1N000
SPE4A625T43ZF5310012104874                                    701380683309/26/25SPE4A625T43ZF.pdf  0000002EAWASHER,FLAT          DTG01R1N000
SPE4A625T43ZG5310013976178                                    701388385009/26/25SPE4A625T43ZG.pdf  0000030EANUT,SELF-LOCKING,HE  DCC02G1N000
SPE4A625T43ZH5310015443388                                    701380932109/26/25SPE4A625T43ZH.pdf  0000004EAWASHER,FLAT          DDF00D1N000
SPE4A625T43ZJ5315014686381                                    701380681909/26/25SPE4A625T43ZJ.pdf  0000001EAPIN,SHOULDER,HEADLE  DMJ00L1N000
SPE4A625T43ZK5305016118521                                    701381415109/26/25SPE4A625T43ZK.pdf  0000004EASCREW,MACHINE        DAS02Z1N000
SPE4A625T43ZL5307003823388                                    701380682409/26/25SPE4A625T43ZL.pdf  0000004EASTUD,WELDING         DJS02G1N000
SPE4A625T43ZM6685016541395                                    701381413509/26/25SPE4A625T43ZM.pdf  0000001EAGAGE,DIFFERENTIAL,D  DMB03Z1N000
SPE4A625T43ZN3120016789751                                    701380685409/26/25SPE4A625T43ZN.pdf  0000001EABEARING,WASHER,THRU  DKZ00D1N000
SPE4A625T43ZP5315015065131                                    701381419809/26/25SPE4A625T43ZP.pdf  0000001EAKEY,MACHINE          DSB02R1N000
SPE4A625T43ZQ5305016768609                                    701381417809/26/25SPE4A625T43ZQ.pdf  0000006EASCREW,MACHINE        GPP35Q1N000
SPE4A625T43ZR5970016474668                                    701381411009/26/25SPE4A625T43ZR.pdf  0000024EATAPE,INSULATION,ELE  DEP00D1N000
SPE4A625T43ZS6150017089602                                    701381440309/26/25SPE4A625T43ZS.pdf  0000002EACABLE ASSEMBLY,SPEC  DCP00Z1N000
SPE4A625T43ZT3110003478423                                    701381400409/26/25SPE4A625T43ZT.pdf  0000001EABEARING,BALL,ANNULA  DCW01P1N000
SPE4A625T43ZT3110003478423                                    701381400509/26/25SPE4A625T43ZT.pdf  0000001EABEARING,BALL,ANNULA  DCW01P1N000
SPE4A625T43ZU5970010852845                                    701381437309/26/25SPE4A625T43ZU.pdf  0000023FTINSULATION SLEEVING  GPD24T1N000
SPE4A625T43ZU5970010852845                                    701385824909/26/25SPE4A625T43ZU.pdf  0000086FTINSULATION SLEEVING  GPD24T1N000
SPE4A625T43ZU5970010852845                                    701388351709/26/25SPE4A625T43ZU.pdf  0000011FTINSULATION SLEEVING  GPD24T1N000
SPE4A625T43ZV6680013603835                                    701375655109/26/25SPE4A625T43ZV.pdf  0000012EATRANSMITTER,LIQUID   DCY00G1N000
SPE4A625T43ZW5325011241169                                    701380683109/26/25SPE4A625T43ZW.pdf  0000002EARING,RETAINING       DDW01R1N000
SPE4A625T43ZX4010005532662                                    701372036309/26/25SPE4A625T43ZX.pdf  0000071EAWIRE ROPE ASSEMBLY,SIGPP49G1N000
SPE4A625T43ZY5320005588033                                    701388922309/26/25SPE4A625T43ZY.pdf  0000016EAPIN-RIVET            DMJ00G1N000
SPE4A625T43ZZ5320013406749                                    701230156609/26/25SPE4A625T43ZZ.pdf  0000250EARIVET,BLIND          DAS01G1Y100
SPE4A625T44AA5305012895005                                    701381438209/26/25SPE4A625T44AA.pdf  0000001EASCREW,CAP,HEXAGON H  DAA00Z1N000
SPE4A625T44AB5310014774463                                    701381423909/26/25SPE4A625T44AB.pdf  0000001EAWASHER,FLAT          DSS02D1N000
SPE4A625T44AC5315011322740                                    701306382809/26/25SPE4A625T44AC.pdf  0000033EAPIN                  DSH01G1Y100
SPE4A625T44AD5305016766323                                    701380915909/26/25SPE4A625T44AD.pdf  0000030EASCREW,CAP,SOCKET HE  GPP79G1N000
SPE4A625T44AE3120012877797                                    701383369409/26/25SPE4A625T44AE.pdf  0000100EABEARING,PLAIN,ROD E  GPP42D1N000
SPE4A625T44AF5320017288537                                    701268699009/26/25SPE4A625T44AF.pdf  0006000EARIVET,SOLID          DSH01B1N000
SPE4A625T44AG5320017292240                                    701306344909/26/25SPE4A625T44AG.pdf  0000125EAPIN-RIVET            DSH01D1N000
SPE4A625T44AH3120010731945                                    701384729809/26/25SPE4A625T44AH.pdf  0000022EABUSHING,SLEEVE       DKW01G1N000
SPE4A625T44AJ5320017164038                                    701268633709/26/25SPE4A625T44AJ.pdf  0000084EAPIN-RIVET            DSH01D1N000
SPE4A625T44AK5305015709564                                    701380909609/26/25SPE4A625T44AK.pdf  0000004EASCREW,MACHINE        DEE00D1N000
SPE4A625T44AL5305640007183                                    701290029309/26/25SPE4A625T44AL.pdf  0003334EASCREW,CAP,HEXAGON H  DVP00D1N000
SPE4A625T44AM5307010244923                                    701387289009/26/25SPE4A625T44AM.pdf  0000040EASTUD, PLAIN          DMC01G1N000
SPE4A625T44AN5320017294437                                    701306338809/26/25SPE4A625T44AN.pdf  0000125EAPIN-RIVET            DSH01D1N000
SPE4A625T44AP5305012593226                                    701381418709/26/25SPE4A625T44AP.pdf  0000002EASCREW                DMW01G1N000
SPE4A625T44AQ5315016958179                                    701380680109/26/25SPE4A625T44AQ.pdf  0000002EAPIN,QUICK RELEASE    DDF00Z1N000
SPE4A625T44AR6680000213048                                    701264615509/26/25SPE4A625T44AR.pdf  0000001EAMETER,FLOW RATE IND  DBW00D1N000
SPE4A625T44AS5340011147651                                    701347029509/29/25SPE4A625T44AS.pdf  0000092EALATCH,THUMB          GPP29G1N000
SPE4A625T44AT6230012614886                                    701383352709/26/25SPE4A625T44AT.pdf  0000005EAFLOODLIGHT,ELECTRIC  DEP00Z1Y100
SPE4A625T44AU3120015135853                                    700680441409/26/25SPE4A625T44AU.pdf  0000011EABEARING,SLEEVE       DKW01D1N000
SPE4A625T44AV5305014458119                                    701343141409/26/25SPE4A625T44AV.pdf  0000087EASCREW,CAP,SOCKET HE  DAA00G1N000
SPE4A625T44AW5325006018277                                    701388921809/26/25SPE4A625T44AW.pdf  0000410EARING,RETAINING       DTM01G1N000
SPE4A625T44AX5995016825756                                    701372054909/26/25SPE4A625T44AX.pdf  0000004FTCABLE ASSEMBLY,POWE  GPP24C1N000
SPE4A625T44AY5320017138537                                    701363035709/26/25SPE4A625T44AY.pdf  0000019EAPIN-RIVET            DSH01G1N000
SPE4A625T44AZ6680012992087                                    700733558809/26/25SPE4A625T44AZ.pdf  0000004EAMETER,FLOW RATE INDICDKW01D1N000
SPE4A625T44BA5305017324197                                    701383427509/26/25SPE4A625T44BA.pdf  0000150EASCREW,CLOSE TOLERAN  DDB02G1N000
SPE4A625T44BB5315015342385                                    701360946109/26/25SPE4A625T44BB.pdf  0000005EAPIN,COTTER           DEM00R1N000
SPE4A625T44BC5315016056874                                    701376002809/26/25SPE4A625T44BC.pdf  0000001EAPIN,SPRING           DDF00G1N000
SPE4A625T44BD3110015926577                                    700733500209/26/25SPE4A625T44BD.pdf  0000034EABEARING,ROLLER,TAPE  DKW01D1N000
SPE4A625T44BE5310017277759                                    701372175509/26/25SPE4A625T44BE.pdf  0000100EAWASHER,FLAT          DAS02D1N000
